{
  "_format": "hh-sol-artifact-1",
  "contractName": "NumberGame",
  "sourceName": "contracts/NumberGame.sol",
  "abi": [
    {
      "inputs": [],
      "stateMutability": "nonpayable",
      "type": "constructor"
    },
    {
      "inputs": [],
      "name": "currentPlayer",
      "outputs": [
        {
          "internalType": "address",
          "name": "",
          "type": "address"
        }
      ],
      "stateMutability": "view",
      "type": "function"
    },
    {
      "inputs": [],
      "name": "gameEnded",
      "outputs": [
        {
          "internalType": "bool",
          "name": "",
          "type": "bool"
        }
      ],
      "stateMutability": "view",
      "type": "function"
    },
    {
      "inputs": [],
      "name": "getTargetNumber",
      "outputs": [
        {
          "internalType": "uint256",
          "name": "",
          "type": "uint256"
        }
      ],
      "stateMutability": "view",
      "type": "function"
    },
    {
      "inputs": [],
      "name": "joinGame",
      "outputs": [],
      "stateMutability": "payable",
      "type": "function"
    },
    {
      "inputs": [
        {
          "internalType": "uint256",
          "name": "guess",
          "type": "uint256"
        }
      ],
      "name": "makeGuess",
      "outputs": [],
      "stateMutability": "payable",
      "type": "function"
    },
    {
      "inputs": [],
      "name": "owner",
      "outputs": [
        {
          "internalType": "address payable",
          "name": "",
          "type": "address"
        }
      ],
      "stateMutability": "view",
      "type": "function"
    },
    {
      "inputs": [],
      "name": "player1",
      "outputs": [
        {
          "internalType": "address payable",
          "name": "",
          "type": "address"
        }
      ],
      "stateMutability": "view",
      "type": "function"
    },
    {
      "inputs": [],
      "name": "player2",
      "outputs": [
        {
          "internalType": "address payable",
          "name": "",
          "type": "address"
        }
      ],
      "stateMutability": "view",
      "type": "function"
    },
    {
      "inputs": [],
      "name": "player2Bet",
      "outputs": [
        {
          "internalType": "uint256",
          "name": "",
          "type": "uint256"
        }
      ],
      "stateMutability": "view",
      "type": "function"
    },
    {
      "inputs": [],
      "name": "withdraw",
      "outputs": [],
      "stateMutability": "nonpayable",
      "type": "function"
    }
  ],
  "bytecode": "0x60806040523480156200001157600080fd5b50336000806101000a81548173ffffffffffffffffffffffffffffffffffffffff021916908373ffffffffffffffffffffffffffffffffffffffff160217905550620000626200006860201b60201c565b620003ea565b60008054906101000a900473ffffffffffffffffffffffffffffffffffffffff1673ffffffffffffffffffffffffffffffffffffffff163373ffffffffffffffffffffffffffffffffffffffff161480620001105750600160009054906101000a900473ffffffffffffffffffffffffffffffffffffffff1673ffffffffffffffffffffffffffffffffffffffff163373ffffffffffffffffffffffffffffffffffffffff16145b80620001695750600260009054906101000a900473ffffffffffffffffffffffffffffffffffffffff1673ffffffffffffffffffffffffffffffffffffffff163373ffffffffffffffffffffffffffffffffffffffff16145b620001ab576040517f08c379a0000000000000000000000000000000000000000000000000000000008152600401620001a290620002b0565b60405180910390fd5b600160634244604051602001620001c492919062000280565b6040516020818303038152906040528051906020012060001c620001e9919062000354565b620001f59190620002e3565b600681905550565b60006200020c602d83620002d2565b91507f4f6e6c7920746865206f776e65722063616e2067656e6572617465207468652060008301527f746172676574206e756d626572000000000000000000000000000000000000006020830152604082019050919050565b6200027a620002748262000340565b6200034a565b82525050565b60006200028e828562000265565b602082019150620002a0828462000265565b6020820191508190509392505050565b60006020820190508181036000830152620002cb81620001fd565b9050919050565b600082825260208201905092915050565b6000620002f08262000340565b9150620002fd8362000340565b9250827fffffffffffffffffffffffffffffffffffffffffffffffffffffffffffffffff038211156200033557620003346200038c565b5b828201905092915050565b6000819050919050565b6000819050919050565b6000620003618262000340565b91506200036e8362000340565b925082620003815762000380620003bb565b5b828206905092915050565b7f4e487b7100000000000000000000000000000000000000000000000000000000600052601160045260246000fd5b7f4e487b7100000000000000000000000000000000000000000000000000000000600052601260045260246000fd5b611b3280620003fa6000396000f3fe6080604052600436106100915760003560e01c80638da5cb5b116100595780638da5cb5b1461014a578063b22e1d7714610175578063d30895e4146101a0578063d4f77b1c146101cb578063d9f8fd12146101d557610091565b806322666da6146100965780632f6fe396146100b25780633ccfd60b146100dd5780634404a438146100f457806359a5f12d1461011f575b600080fd5b6100b060048036038101906100ab9190611282565b610200565b005b3480156100be57600080fd5b506100c76106a2565b6040516100d49190611784565b60405180910390f35b3480156100e957600080fd5b506100f26106b5565b005b34801561010057600080fd5b50610109610a55565b604051610116919061174e565b60405180910390f35b34801561012b57600080fd5b50610134610a7b565b6040516101419190611769565b60405180910390f35b34801561015657600080fd5b5061015f610aa1565b60405161016c9190611769565b60405180910390f35b34801561018157600080fd5b5061018a610ac5565b604051610197919061193f565b60405180910390f35b3480156101ac57600080fd5b506101b5610b5e565b6040516101c29190611769565b60405180910390f35b6101d3610b84565b005b3480156101e157600080fd5b506101ea6110dd565b6040516101f7919061193f565b60405180910390f35b600760009054906101000a900460ff1615610250576040517f08c379a00000000000000000000000000000000000000000000000000000000081526004016102479061185f565b60405180910390fd5b600760019054906101000a900473ffffffffffffffffffffffffffffffffffffffff1673ffffffffffffffffffffffffffffffffffffffff163373ffffffffffffffffffffffffffffffffffffffff16146102e0576040517f08c379a00000000000000000000000000000000000000000000000000000000081526004016102d79061189f565b60405180910390fd5b6000811180156102f1575060638111155b610330576040517f08c379a00000000000000000000000000000000000000000000000000000000081526004016103279061183f565b60405180910390fd5b600554341015610375576040517f08c379a000000000000000000000000000000000000000000000000000000000815260040161036c906117bf565b60405180910390fd5b600654811415610472576001600760006101000a81548160ff0219169083151502179055503373ffffffffffffffffffffffffffffffffffffffff166108fc479081150290604051600060405180830381858888f193505050501580156103e0573d6000803e3d6000fd5b506103e96110e3565b6000600160006101000a81548173ffffffffffffffffffffffffffffffffffffffff021916908373ffffffffffffffffffffffffffffffffffffffff1602179055506000600260006101000a81548173ffffffffffffffffffffffffffffffffffffffff021916908373ffffffffffffffffffffffffffffffffffffffff16021790555061069f565b600160009054906101000a900473ffffffffffffffffffffffffffffffffffffffff1673ffffffffffffffffffffffffffffffffffffffff16600760019054906101000a900473ffffffffffffffffffffffffffffffffffffffff1673ffffffffffffffffffffffffffffffffffffffff1614156105085734600360008282546104fc919061196b565b9250508190555061059b565b600260009054906101000a900473ffffffffffffffffffffffffffffffffffffffff1673ffffffffffffffffffffffffffffffffffffffff16600760019054906101000a900473ffffffffffffffffffffffffffffffffffffffff1673ffffffffffffffffffffffffffffffffffffffff16141561059a573460046000828254610592919061196b565b925050819055505b5b600160009054906101000a900473ffffffffffffffffffffffffffffffffffffffff1673ffffffffffffffffffffffffffffffffffffffff16600760019054906101000a900473ffffffffffffffffffffffffffffffffffffffff1673ffffffffffffffffffffffffffffffffffffffff161461063a57600160009054906101000a900473ffffffffffffffffffffffffffffffffffffffff1661065e565b600260009054906101000a900473ffffffffffffffffffffffffffffffffffffffff165b600760016101000a81548173ffffffffffffffffffffffffffffffffffffffff021916908373ffffffffffffffffffffffffffffffffffffffff1602179055505b50565b600760009054906101000a900460ff1681565b600160009054906101000a900473ffffffffffffffffffffffffffffffffffffffff1673ffffffffffffffffffffffffffffffffffffffff163373ffffffffffffffffffffffffffffffffffffffff16148061075e5750600260009054906101000a900473ffffffffffffffffffffffffffffffffffffffff1673ffffffffffffffffffffffffffffffffffffffff163373ffffffffffffffffffffffffffffffffffffffff16145b61079d576040517f08c379a0000000000000000000000000000000000000000000000000000000008152600401610794906117df565b60405180910390fd5b600160009054906101000a900473ffffffffffffffffffffffffffffffffffffffff1673ffffffffffffffffffffffffffffffffffffffff163373ffffffffffffffffffffffffffffffffffffffff1614156108f8576000600260035461080491906119c1565b905080600554111561084b576040517f08c379a0000000000000000000000000000000000000000000000000000000008152600401610842906118ff565b60405180910390fd5b600160009054906101000a900473ffffffffffffffffffffffffffffffffffffffff1673ffffffffffffffffffffffffffffffffffffffff166108fc829081150290604051600060405180830381858888f193505050501580156108b3573d6000803e3d6000fd5b506000600160006101000a81548173ffffffffffffffffffffffffffffffffffffffff021916908373ffffffffffffffffffffffffffffffffffffffff160217905550505b600260009054906101000a900473ffffffffffffffffffffffffffffffffffffffff1673ffffffffffffffffffffffffffffffffffffffff163373ffffffffffffffffffffffffffffffffffffffff161415610a53576000600260045461095f91906119c1565b90508060055411156109a6576040517f08c379a000000000000000000000000000000000000000000000000000000000815260040161099d906118ff565b60405180910390fd5b600260009054906101000a900473ffffffffffffffffffffffffffffffffffffffff1673ffffffffffffffffffffffffffffffffffffffff166108fc829081150290604051600060405180830381858888f19350505050158015610a0e573d6000803e3d6000fd5b506000600260006101000a81548173ffffffffffffffffffffffffffffffffffffffff021916908373ffffffffffffffffffffffffffffffffffffffff160217905550505b565b600760019054906101000a900473ffffffffffffffffffffffffffffffffffffffff1681565b600260009054906101000a900473ffffffffffffffffffffffffffffffffffffffff1681565b60008054906101000a900473ffffffffffffffffffffffffffffffffffffffff1681565b60008060009054906101000a900473ffffffffffffffffffffffffffffffffffffffff1673ffffffffffffffffffffffffffffffffffffffff163373ffffffffffffffffffffffffffffffffffffffff1614610b56576040517f08c379a0000000000000000000000000000000000000000000000000000000008152600401610b4d906118bf565b60405180910390fd5b600654905090565b600160009054906101000a900473ffffffffffffffffffffffffffffffffffffffff1681565b600073ffffffffffffffffffffffffffffffffffffffff16600160009054906101000a900473ffffffffffffffffffffffffffffffffffffffff1673ffffffffffffffffffffffffffffffffffffffff161480610c2f5750600073ffffffffffffffffffffffffffffffffffffffff16600260009054906101000a900473ffffffffffffffffffffffffffffffffffffffff1673ffffffffffffffffffffffffffffffffffffffff16145b610c6e576040517f08c379a0000000000000000000000000000000000000000000000000000000008152600401610c65906117ff565b60405180910390fd5b600160009054906101000a900473ffffffffffffffffffffffffffffffffffffffff1673ffffffffffffffffffffffffffffffffffffffff163373ffffffffffffffffffffffffffffffffffffffff161415610cff576040517f08c379a0000000000000000000000000000000000000000000000000000000008152600401610cf69061187f565b60405180910390fd5b60008054906101000a900473ffffffffffffffffffffffffffffffffffffffff1673ffffffffffffffffffffffffffffffffffffffff163373ffffffffffffffffffffffffffffffffffffffff161415610d8e576040517f08c379a0000000000000000000000000000000000000000000000000000000008152600401610d85906118df565b60405180910390fd5b652d79883d2000341015610dd7576040517f08c379a0000000000000000000000000000000000000000000000000000000008152600401610dce9061191f565b60405180910390fd5b600073ffffffffffffffffffffffffffffffffffffffff16600160009054906101000a900473ffffffffffffffffffffffffffffffffffffffff1673ffffffffffffffffffffffffffffffffffffffff161415610ede5733600160006101000a81548173ffffffffffffffffffffffffffffffffffffffff021916908373ffffffffffffffffffffffffffffffffffffffff160217905550600160009054906101000a900473ffffffffffffffffffffffffffffffffffffffff16600760016101000a81548173ffffffffffffffffffffffffffffffffffffffff021916908373ffffffffffffffffffffffffffffffffffffffff160217905550346005819055506110c0565b600073ffffffffffffffffffffffffffffffffffffffff16600260009054906101000a900473ffffffffffffffffffffffffffffffffffffffff1673ffffffffffffffffffffffffffffffffffffffff1614156110bf57600554341015610f7a576040517f08c379a0000000000000000000000000000000000000000000000000000000008152600401610f719061181f565b60405180910390fd5b33600260006101000a81548173ffffffffffffffffffffffffffffffffffffffff021916908373ffffffffffffffffffffffffffffffffffffffff160217905550600160009054906101000a900473ffffffffffffffffffffffffffffffffffffffff1673ffffffffffffffffffffffffffffffffffffffff16600760019054906101000a900473ffffffffffffffffffffffffffffffffffffffff1673ffffffffffffffffffffffffffffffffffffffff161461105a57600260009054906101000a900473ffffffffffffffffffffffffffffffffffffffff1661107e565b600160009054906101000a900473ffffffffffffffffffffffffffffffffffffffff165b600760016101000a81548173ffffffffffffffffffffffffffffffffffffffff021916908373ffffffffffffffffffffffffffffffffffffffff1602179055505b5b6000600760006101000a81548160ff021916908315150217905550565b60045481565b60008054906101000a900473ffffffffffffffffffffffffffffffffffffffff1673ffffffffffffffffffffffffffffffffffffffff163373ffffffffffffffffffffffffffffffffffffffff16148061118a5750600160009054906101000a900473ffffffffffffffffffffffffffffffffffffffff1673ffffffffffffffffffffffffffffffffffffffff163373ffffffffffffffffffffffffffffffffffffffff16145b806111e25750600260009054906101000a900473ffffffffffffffffffffffffffffffffffffffff1673ffffffffffffffffffffffffffffffffffffffff163373ffffffffffffffffffffffffffffffffffffffff16145b611221576040517f08c379a00000000000000000000000000000000000000000000000000000000081526004016112189061179f565b60405180910390fd5b600160634244604051602001611238929190611722565b6040516020818303038152906040528051906020012060001c61125b9190611a56565b611265919061196b565b600681905550565b60008135905061127c81611ae5565b92915050565b60006020828403121561129457600080fd5b60006112a28482850161126d565b91505092915050565b6112b481611a04565b82525050565b6112c3816119f2565b82525050565b6112d281611a16565b82525050565b60006112e5602d8361195a565b91507f4f6e6c7920746865206f776e65722063616e2067656e6572617465207468652060008301527f746172676574206e756d626572000000000000000000000000000000000000006020830152604082019050919050565b600061134b60448361195a565b91507f506c656173652073656e64206574686572207769746820796f7572206775657360008301527f7320657175616c206f7220686967686572207468616e2074686520656e74727960208301527f20666565000000000000000000000000000000000000000000000000000000006040830152606082019050919050565b60006113d7600c8361195a565b91507f4e6f74206120706c6179657200000000000000000000000000000000000000006000830152602082019050919050565b600061141760148361195a565b91507f47616d6520697320616c72656164792066756c6c0000000000000000000000006000830152602082019050919050565b6000611457602b8361195a565b91507f546865206574686572206e656564656420746f206a6f696e206e65656473207460008301527f6f206265206869676865720000000000000000000000000000000000000000006020830152604082019050919050565b60006114bd601e8361195a565b91507f4775657373206d757374206265206265747765656e203120616e6420393900006000830152602082019050919050565b60006114fd60168361195a565b91507f47616d652068617320616c726561647920656e646564000000000000000000006000830152602082019050919050565b600061153d60208361195a565b91507f796f75206861766520616c7265616479206a6f696e6564207468652067616d656000830152602082019050919050565b600061157d600d8361195a565b91507f4e6f7420796f7572207475726e000000000000000000000000000000000000006000830152602082019050919050565b60006115bd60298361195a565b91507f4f6e6c7920746865206f776e65722063616e207669657720746865207461726760008301527f6574206e756d62657200000000000000000000000000000000000000000000006020830152604082019050919050565b6000611623601a8361195a565b91507f4f776e65722063616e6e6f74206a6f696e207468652067616d650000000000006000830152602082019050919050565b600061166360168361195a565b91507f4e6f2062616c616e636520746f207769746864726177000000000000000000006000830152602082019050919050565b60006116a360228361195a565b91507f506c656173652073656e6420657468657220746f206a6f696e2074686520676160008301527f6d650000000000000000000000000000000000000000000000000000000000006020830152604082019050919050565b61170581611a42565b82525050565b61171c61171782611a42565b611a4c565b82525050565b600061172e828561170b565b60208201915061173e828461170b565b6020820191508190509392505050565b600060208201905061176360008301846112ba565b92915050565b600060208201905061177e60008301846112ab565b92915050565b600060208201905061179960008301846112c9565b92915050565b600060208201905081810360008301526117b8816112d8565b9050919050565b600060208201905081810360008301526117d88161133e565b9050919050565b600060208201905081810360008301526117f8816113ca565b9050919050565b600060208201905081810360008301526118188161140a565b9050919050565b600060208201905081810360008301526118388161144a565b9050919050565b60006020820190508181036000830152611858816114b0565b9050919050565b60006020820190508181036000830152611878816114f0565b9050919050565b6000602082019050818103600083015261189881611530565b9050919050565b600060208201905081810360008301526118b881611570565b9050919050565b600060208201905081810360008301526118d8816115b0565b9050919050565b600060208201905081810360008301526118f881611616565b9050919050565b6000602082019050818103600083015261191881611656565b9050919050565b6000602082019050818103600083015261193881611696565b9050919050565b600060208201905061195460008301846116fc565b92915050565b600082825260208201905092915050565b600061197682611a42565b915061198183611a42565b9250827fffffffffffffffffffffffffffffffffffffffffffffffffffffffffffffffff038211156119b6576119b5611a87565b5b828201905092915050565b60006119cc82611a42565b91506119d783611a42565b9250826119e7576119e6611ab6565b5b828204905092915050565b60006119fd82611a22565b9050919050565b6000611a0f82611a22565b9050919050565b60008115159050919050565b600073ffffffffffffffffffffffffffffffffffffffff82169050919050565b6000819050919050565b6000819050919050565b6000611a6182611a42565b9150611a6c83611a42565b925082611a7c57611a7b611ab6565b5b828206905092915050565b7f4e487b7100000000000000000000000000000000000000000000000000000000600052601160045260246000fd5b7f4e487b7100000000000000000000000000000000000000000000000000000000600052601260045260246000fd5b611aee81611a42565b8114611af957600080fd5b5056fea2646970667358221220d277710be0b0bce84c9129c2e442d4bd270ccf7cf079f19398bc2f1d44a81bdd64736f6c63430008000033",
  "linkReferences": {},
  "deployedLinkReferences": {}
}