{
  "_format": "hh-sol-artifact-1",
  "contractName": "NumberGame",
  "sourceName": "contracts/NumberGame.sol",
  "abi": [
    {
      "inputs": [],
      "stateMutability": "nonpayable",
      "type": "constructor"
    },
    {
      "inputs": [],
      "name": "currentPlayer",
      "outputs": [
        {
          "internalType": "address",
          "name": "",
          "type": "address"
        }
      ],
      "stateMutability": "view",
      "type": "function"
    },
    {
      "inputs": [],
      "name": "gameEnded",
      "outputs": [
        {
          "internalType": "bool",
          "name": "",
          "type": "bool"
        }
      ],
      "stateMutability": "view",
      "type": "function"
    },
    {
      "inputs": [],
      "name": "getTargetNumber",
      "outputs": [
        {
          "internalType": "uint256",
          "name": "",
          "type": "uint256"
        }
      ],
      "stateMutability": "view",
      "type": "function"
    },
    {
      "inputs": [],
      "name": "joinGame",
      "outputs": [],
      "stateMutability": "payable",
      "type": "function"
    },
    {
      "inputs": [
        {
          "internalType": "uint256",
          "name": "p1Guess",
          "type": "uint256"
        },
        {
          "internalType": "uint256",
          "name": "p2Guess",
          "type": "uint256"
        }
      ],
      "name": "makeGuess",
      "outputs": [],
      "stateMutability": "payable",
      "type": "function"
    },
    {
      "inputs": [],
      "name": "owner",
      "outputs": [
        {
          "internalType": "address payable",
          "name": "",
          "type": "address"
        }
      ],
      "stateMutability": "view",
      "type": "function"
    },
    {
      "inputs": [],
      "name": "player1",
      "outputs": [
        {
          "internalType": "address payable",
          "name": "",
          "type": "address"
        }
      ],
      "stateMutability": "view",
      "type": "function"
    },
    {
      "inputs": [],
      "name": "player1Bet",
      "outputs": [
        {
          "internalType": "uint256",
          "name": "",
          "type": "uint256"
        }
      ],
      "stateMutability": "view",
      "type": "function"
    },
    {
      "inputs": [],
      "name": "player2",
      "outputs": [
        {
          "internalType": "address payable",
          "name": "",
          "type": "address"
        }
      ],
      "stateMutability": "view",
      "type": "function"
    },
    {
      "inputs": [],
      "name": "player2Bet",
      "outputs": [
        {
          "internalType": "uint256",
          "name": "",
          "type": "uint256"
        }
      ],
      "stateMutability": "view",
      "type": "function"
    },
    {
      "inputs": [],
      "name": "withdraw",
      "outputs": [],
      "stateMutability": "nonpayable",
      "type": "function"
    }
  ],
  "bytecode": "0x60806040523480156200001157600080fd5b50336000806101000a81548173ffffffffffffffffffffffffffffffffffffffff021916908373ffffffffffffffffffffffffffffffffffffffff160217905550620000626200006860201b60201c565b620003ea565b60008054906101000a900473ffffffffffffffffffffffffffffffffffffffff1673ffffffffffffffffffffffffffffffffffffffff163373ffffffffffffffffffffffffffffffffffffffff161480620001105750600160009054906101000a900473ffffffffffffffffffffffffffffffffffffffff1673ffffffffffffffffffffffffffffffffffffffff163373ffffffffffffffffffffffffffffffffffffffff16145b80620001695750600260009054906101000a900473ffffffffffffffffffffffffffffffffffffffff1673ffffffffffffffffffffffffffffffffffffffff163373ffffffffffffffffffffffffffffffffffffffff16145b620001ab576040517f08c379a0000000000000000000000000000000000000000000000000000000008152600401620001a290620002b0565b60405180910390fd5b600160634244604051602001620001c492919062000280565b6040516020818303038152906040528051906020012060001c620001e9919062000354565b620001f59190620002e3565b600681905550565b60006200020c602d83620002d2565b91507f4f6e6c7920746865206f776e65722063616e2067656e6572617465207468652060008301527f746172676574206e756d626572000000000000000000000000000000000000006020830152604082019050919050565b6200027a620002748262000340565b6200034a565b82525050565b60006200028e828562000265565b602082019150620002a0828462000265565b6020820191508190509392505050565b60006020820190508181036000830152620002cb81620001fd565b9050919050565b600082825260208201905092915050565b6000620002f08262000340565b9150620002fd8362000340565b9250827fffffffffffffffffffffffffffffffffffffffffffffffffffffffffffffffff038211156200033557620003346200038c565b5b828201905092915050565b6000819050919050565b6000819050919050565b6000620003618262000340565b91506200036e8362000340565b925082620003815762000380620003bb565b5b828206905092915050565b7f4e487b7100000000000000000000000000000000000000000000000000000000600052601160045260246000fd5b7f4e487b7100000000000000000000000000000000000000000000000000000000600052601260045260246000fd5b611ac680620003fa6000396000f3fe60806040526004361061009c5760003560e01c80638da5cb5b116100645780638da5cb5b14610164578063ad832fc81461018f578063b22e1d77146101ab578063d30895e4146101d6578063d4f77b1c14610201578063d9f8fd121461020b5761009c565b806311289fba146100a15780632f6fe396146100cc5780633ccfd60b146100f75780634404a4381461010e57806359a5f12d14610139575b600080fd5b3480156100ad57600080fd5b506100b6610236565b6040516100c391906118d3565b60405180910390f35b3480156100d857600080fd5b506100e161023c565b6040516100ee9190611738565b60405180910390f35b34801561010357600080fd5b5061010c61024f565b005b34801561011a57600080fd5b506101236105ff565b6040516101309190611702565b60405180910390f35b34801561014557600080fd5b5061014e610625565b60405161015b919061171d565b60405180910390f35b34801561017057600080fd5b5061017961064b565b604051610186919061171d565b60405180910390f35b6101a960048036038101906101a49190611263565b61066f565b005b3480156101b757600080fd5b506101c0610aa6565b6040516101cd91906118d3565b60405180910390f35b3480156101e257600080fd5b506101eb610b3f565b6040516101f8919061171d565b60405180910390f35b610209610b65565b005b34801561021757600080fd5b506102206110be565b60405161022d91906118d3565b60405180910390f35b60035481565b600760009054906101000a900460ff1681565b600160009054906101000a900473ffffffffffffffffffffffffffffffffffffffff1673ffffffffffffffffffffffffffffffffffffffff163373ffffffffffffffffffffffffffffffffffffffff1614806102f85750600260009054906101000a900473ffffffffffffffffffffffffffffffffffffffff1673ffffffffffffffffffffffffffffffffffffffff163373ffffffffffffffffffffffffffffffffffffffff16145b610337576040517f08c379a000000000000000000000000000000000000000000000000000000000815260040161032e90611793565b60405180910390fd5b600160009054906101000a900473ffffffffffffffffffffffffffffffffffffffff1673ffffffffffffffffffffffffffffffffffffffff163373ffffffffffffffffffffffffffffffffffffffff16141561049a576000600260035461039e9190611955565b90506005548110156103e5576040517f08c379a00000000000000000000000000000000000000000000000000000000081526004016103dc90611893565b60405180910390fd5b600160009054906101000a900473ffffffffffffffffffffffffffffffffffffffff1673ffffffffffffffffffffffffffffffffffffffff166108fc829081150290604051600060405180830381858888f1935050505015801561044d573d6000803e3d6000fd5b506000600160006101000a81548173ffffffffffffffffffffffffffffffffffffffff021916908373ffffffffffffffffffffffffffffffffffffffff1602179055506000600381905550505b600260009054906101000a900473ffffffffffffffffffffffffffffffffffffffff1673ffffffffffffffffffffffffffffffffffffffff163373ffffffffffffffffffffffffffffffffffffffff1614156105fd57600060026004546105019190611955565b9050600554811015610548576040517f08c379a000000000000000000000000000000000000000000000000000000000815260040161053f90611893565b60405180910390fd5b600260009054906101000a900473ffffffffffffffffffffffffffffffffffffffff1673ffffffffffffffffffffffffffffffffffffffff166108fc829081150290604051600060405180830381858888f193505050501580156105b0573d6000803e3d6000fd5b506000600260006101000a81548173ffffffffffffffffffffffffffffffffffffffff021916908373ffffffffffffffffffffffffffffffffffffffff1602179055506000600481905550505b565b600760019054906101000a900473ffffffffffffffffffffffffffffffffffffffff1681565b600260009054906101000a900473ffffffffffffffffffffffffffffffffffffffff1681565b60008054906101000a900473ffffffffffffffffffffffffffffffffffffffff1681565b600760009054906101000a900460ff16156106bf576040517f08c379a00000000000000000000000000000000000000000000000000000000081526004016106b690611813565b60405180910390fd5b6000821180156106d05750600a8211155b61070f576040517f08c379a0000000000000000000000000000000000000000000000000000000008152600401610706906117f3565b60405180910390fd5b6000811180156107205750600a8111155b61075f576040517f08c379a0000000000000000000000000000000000000000000000000000000008152600401610756906117f3565b60405180910390fd5b6005543410156107a4576040517f08c379a000000000000000000000000000000000000000000000000000000000815260040161079b90611773565b60405180910390fd5b600654821480156107b6575060065481145b15610955576001600760006101000a81548160ff021916908315150217905550600160009054906101000a900473ffffffffffffffffffffffffffffffffffffffff1673ffffffffffffffffffffffffffffffffffffffff166108fc60024761081f9190611955565b9081150290604051600060405180830381858888f1935050505015801561084a573d6000803e3d6000fd5b50600260009054906101000a900473ffffffffffffffffffffffffffffffffffffffff1673ffffffffffffffffffffffffffffffffffffffff166108fc479081150290604051600060405180830381858888f193505050501580156108b3573d6000803e3d6000fd5b506108bc6110c4565b6000600160006101000a81548173ffffffffffffffffffffffffffffffffffffffff021916908373ffffffffffffffffffffffffffffffffffffffff1602179055506000600260006101000a81548173ffffffffffffffffffffffffffffffffffffffff021916908373ffffffffffffffffffffffffffffffffffffffff16021790555060006003819055506000600481905550610aa2565b600654821480610966575060065481145b15610a6e576001600760006101000a81548160ff0219169083151502179055503373ffffffffffffffffffffffffffffffffffffffff166108fc479081150290604051600060405180830381858888f193505050501580156109cc573d6000803e3d6000fd5b506109d56110c4565b6000600160006101000a81548173ffffffffffffffffffffffffffffffffffffffff021916908373ffffffffffffffffffffffffffffffffffffffff1602179055506000600260006101000a81548173ffffffffffffffffffffffffffffffffffffffff021916908373ffffffffffffffffffffffffffffffffffffffff16021790555060006003819055506000600481905550610aa1565b3460036000828254610a8091906118ff565b925050819055503460046000828254610a9991906118ff565b925050819055505b5b5050565b60008060009054906101000a900473ffffffffffffffffffffffffffffffffffffffff1673ffffffffffffffffffffffffffffffffffffffff163373ffffffffffffffffffffffffffffffffffffffff1614610b37576040517f08c379a0000000000000000000000000000000000000000000000000000000008152600401610b2e90611853565b60405180910390fd5b600654905090565b600160009054906101000a900473ffffffffffffffffffffffffffffffffffffffff1681565b600073ffffffffffffffffffffffffffffffffffffffff16600160009054906101000a900473ffffffffffffffffffffffffffffffffffffffff1673ffffffffffffffffffffffffffffffffffffffff161480610c105750600073ffffffffffffffffffffffffffffffffffffffff16600260009054906101000a900473ffffffffffffffffffffffffffffffffffffffff1673ffffffffffffffffffffffffffffffffffffffff16145b610c4f576040517f08c379a0000000000000000000000000000000000000000000000000000000008152600401610c46906117b3565b60405180910390fd5b600160009054906101000a900473ffffffffffffffffffffffffffffffffffffffff1673ffffffffffffffffffffffffffffffffffffffff163373ffffffffffffffffffffffffffffffffffffffff161415610ce0576040517f08c379a0000000000000000000000000000000000000000000000000000000008152600401610cd790611833565b60405180910390fd5b60008054906101000a900473ffffffffffffffffffffffffffffffffffffffff1673ffffffffffffffffffffffffffffffffffffffff163373ffffffffffffffffffffffffffffffffffffffff161415610d6f576040517f08c379a0000000000000000000000000000000000000000000000000000000008152600401610d6690611873565b60405180910390fd5b652d79883d2000341015610db8576040517f08c379a0000000000000000000000000000000000000000000000000000000008152600401610daf906118b3565b60405180910390fd5b600073ffffffffffffffffffffffffffffffffffffffff16600160009054906101000a900473ffffffffffffffffffffffffffffffffffffffff1673ffffffffffffffffffffffffffffffffffffffff161415610ebf5733600160006101000a81548173ffffffffffffffffffffffffffffffffffffffff021916908373ffffffffffffffffffffffffffffffffffffffff160217905550600160009054906101000a900473ffffffffffffffffffffffffffffffffffffffff16600760016101000a81548173ffffffffffffffffffffffffffffffffffffffff021916908373ffffffffffffffffffffffffffffffffffffffff160217905550346005819055506110a1565b600073ffffffffffffffffffffffffffffffffffffffff16600260009054906101000a900473ffffffffffffffffffffffffffffffffffffffff1673ffffffffffffffffffffffffffffffffffffffff1614156110a057600554341015610f5b576040517f08c379a0000000000000000000000000000000000000000000000000000000008152600401610f52906117d3565b60405180910390fd5b33600260006101000a81548173ffffffffffffffffffffffffffffffffffffffff021916908373ffffffffffffffffffffffffffffffffffffffff160217905550600160009054906101000a900473ffffffffffffffffffffffffffffffffffffffff1673ffffffffffffffffffffffffffffffffffffffff16600760019054906101000a900473ffffffffffffffffffffffffffffffffffffffff1673ffffffffffffffffffffffffffffffffffffffff161461103b57600260009054906101000a900473ffffffffffffffffffffffffffffffffffffffff1661105f565b600160009054906101000a900473ffffffffffffffffffffffffffffffffffffffff165b600760016101000a81548173ffffffffffffffffffffffffffffffffffffffff021916908373ffffffffffffffffffffffffffffffffffffffff1602179055505b5b6000600760006101000a81548160ff021916908315150217905550565b60045481565b60008054906101000a900473ffffffffffffffffffffffffffffffffffffffff1673ffffffffffffffffffffffffffffffffffffffff163373ffffffffffffffffffffffffffffffffffffffff16148061116b5750600160009054906101000a900473ffffffffffffffffffffffffffffffffffffffff1673ffffffffffffffffffffffffffffffffffffffff163373ffffffffffffffffffffffffffffffffffffffff16145b806111c35750600260009054906101000a900473ffffffffffffffffffffffffffffffffffffffff1673ffffffffffffffffffffffffffffffffffffffff163373ffffffffffffffffffffffffffffffffffffffff16145b611202576040517f08c379a00000000000000000000000000000000000000000000000000000000081526004016111f990611753565b60405180910390fd5b6001606342446040516020016112199291906116d6565b6040516020818303038152906040528051906020012060001c61123c91906119ea565b61124691906118ff565b600681905550565b60008135905061125d81611a79565b92915050565b6000806040838503121561127657600080fd5b60006112848582860161124e565b92505060206112958582860161124e565b9150509250929050565b6112a881611998565b82525050565b6112b781611986565b82525050565b6112c6816119aa565b82525050565b60006112d9602d836118ee565b91507f4f6e6c7920746865206f776e65722063616e2067656e6572617465207468652060008301527f746172676574206e756d626572000000000000000000000000000000000000006020830152604082019050919050565b600061133f6044836118ee565b91507f506c656173652073656e64206574686572207769746820796f7572206775657360008301527f7320657175616c206f7220686967686572207468616e2074686520656e74727960208301527f20666565000000000000000000000000000000000000000000000000000000006040830152606082019050919050565b60006113cb600c836118ee565b91507f4e6f74206120706c6179657200000000000000000000000000000000000000006000830152602082019050919050565b600061140b6014836118ee565b91507f47616d6520697320616c72656164792066756c6c0000000000000000000000006000830152602082019050919050565b600061144b602b836118ee565b91507f546865206574686572206e656564656420746f206a6f696e206e65656473207460008301527f6f206265206869676865720000000000000000000000000000000000000000006020830152604082019050919050565b60006114b1601e836118ee565b91507f4775657373206d757374206265206265747765656e203120616e6420313000006000830152602082019050919050565b60006114f16016836118ee565b91507f47616d652068617320616c726561647920656e646564000000000000000000006000830152602082019050919050565b60006115316020836118ee565b91507f796f75206861766520616c7265616479206a6f696e6564207468652067616d656000830152602082019050919050565b60006115716029836118ee565b91507f4f6e6c7920746865206f776e65722063616e207669657720746865207461726760008301527f6574206e756d62657200000000000000000000000000000000000000000000006020830152604082019050919050565b60006115d7601a836118ee565b91507f4f776e65722063616e6e6f74206a6f696e207468652067616d650000000000006000830152602082019050919050565b60006116176016836118ee565b91507f4e6f2062616c616e636520746f207769746864726177000000000000000000006000830152602082019050919050565b60006116576022836118ee565b91507f506c656173652073656e6420657468657220746f206a6f696e2074686520676160008301527f6d650000000000000000000000000000000000000000000000000000000000006020830152604082019050919050565b6116b9816119d6565b82525050565b6116d06116cb826119d6565b6119e0565b82525050565b60006116e282856116bf565b6020820191506116f282846116bf565b6020820191508190509392505050565b600060208201905061171760008301846112ae565b92915050565b6000602082019050611732600083018461129f565b92915050565b600060208201905061174d60008301846112bd565b92915050565b6000602082019050818103600083015261176c816112cc565b9050919050565b6000602082019050818103600083015261178c81611332565b9050919050565b600060208201905081810360008301526117ac816113be565b9050919050565b600060208201905081810360008301526117cc816113fe565b9050919050565b600060208201905081810360008301526117ec8161143e565b9050919050565b6000602082019050818103600083015261180c816114a4565b9050919050565b6000602082019050818103600083015261182c816114e4565b9050919050565b6000602082019050818103600083015261184c81611524565b9050919050565b6000602082019050818103600083015261186c81611564565b9050919050565b6000602082019050818103600083015261188c816115ca565b9050919050565b600060208201905081810360008301526118ac8161160a565b9050919050565b600060208201905081810360008301526118cc8161164a565b9050919050565b60006020820190506118e860008301846116b0565b92915050565b600082825260208201905092915050565b600061190a826119d6565b9150611915836119d6565b9250827fffffffffffffffffffffffffffffffffffffffffffffffffffffffffffffffff0382111561194a57611949611a1b565b5b828201905092915050565b6000611960826119d6565b915061196b836119d6565b92508261197b5761197a611a4a565b5b828204905092915050565b6000611991826119b6565b9050919050565b60006119a3826119b6565b9050919050565b60008115159050919050565b600073ffffffffffffffffffffffffffffffffffffffff82169050919050565b6000819050919050565b6000819050919050565b60006119f5826119d6565b9150611a00836119d6565b925082611a1057611a0f611a4a565b5b828206905092915050565b7f4e487b7100000000000000000000000000000000000000000000000000000000600052601160045260246000fd5b7f4e487b7100000000000000000000000000000000000000000000000000000000600052601260045260246000fd5b611a82816119d6565b8114611a8d57600080fd5b5056fea264697066735822122078e965eac4285a3762b6a8dfd4327113224a95266586caf4689ecb0e4149329a64736f6c63430008000033",
  "linkReferences": {},
  "deployedLinkReferences": {}
}