{
  "_format": "hh-sol-artifact-1",
  "contractName": "NumberGame",
  "sourceName": "contracts/NumberGame.sol",
  "abi": [
    {
      "inputs": [],
      "stateMutability": "nonpayable",
      "type": "constructor"
    },
    {
      "inputs": [],
      "name": "currentPlayer",
      "outputs": [
        {
          "internalType": "address",
          "name": "",
          "type": "address"
        }
      ],
      "stateMutability": "view",
      "type": "function"
    },
    {
      "inputs": [],
      "name": "gameEnded",
      "outputs": [
        {
          "internalType": "bool",
          "name": "",
          "type": "bool"
        }
      ],
      "stateMutability": "view",
      "type": "function"
    },
    {
      "inputs": [],
      "name": "getTargetNumber",
      "outputs": [
        {
          "internalType": "uint256",
          "name": "",
          "type": "uint256"
        }
      ],
      "stateMutability": "view",
      "type": "function"
    },
    {
      "inputs": [],
      "name": "joinGame",
      "outputs": [],
      "stateMutability": "payable",
      "type": "function"
    },
    {
      "inputs": [],
      "name": "makeBet",
      "outputs": [],
      "stateMutability": "payable",
      "type": "function"
    },
    {
      "inputs": [
        {
          "internalType": "uint256",
          "name": "p1Guess",
          "type": "uint256"
        },
        {
          "internalType": "uint256",
          "name": "p2Guess",
          "type": "uint256"
        }
      ],
      "name": "makeGuess",
      "outputs": [],
      "stateMutability": "nonpayable",
      "type": "function"
    },
    {
      "inputs": [],
      "name": "owner",
      "outputs": [
        {
          "internalType": "address payable",
          "name": "",
          "type": "address"
        }
      ],
      "stateMutability": "view",
      "type": "function"
    },
    {
      "inputs": [],
      "name": "player1",
      "outputs": [
        {
          "internalType": "address payable",
          "name": "",
          "type": "address"
        }
      ],
      "stateMutability": "view",
      "type": "function"
    },
    {
      "inputs": [],
      "name": "player1Bet",
      "outputs": [
        {
          "internalType": "uint256",
          "name": "",
          "type": "uint256"
        }
      ],
      "stateMutability": "view",
      "type": "function"
    },
    {
      "inputs": [],
      "name": "player2",
      "outputs": [
        {
          "internalType": "address payable",
          "name": "",
          "type": "address"
        }
      ],
      "stateMutability": "view",
      "type": "function"
    },
    {
      "inputs": [],
      "name": "player2Bet",
      "outputs": [
        {
          "internalType": "uint256",
          "name": "",
          "type": "uint256"
        }
      ],
      "stateMutability": "view",
      "type": "function"
    },
    {
      "inputs": [
        {
          "internalType": "uint256",
          "name": "newTargetNumber",
          "type": "uint256"
        }
      ],
      "name": "setTargetNumber",
      "outputs": [],
      "stateMutability": "nonpayable",
      "type": "function"
    },
    {
      "inputs": [],
      "name": "withdraw",
      "outputs": [],
      "stateMutability": "nonpayable",
      "type": "function"
    }
  ],
  "bytecode": "0x60806040523480156200001157600080fd5b50336000806101000a81548173ffffffffffffffffffffffffffffffffffffffff021916908373ffffffffffffffffffffffffffffffffffffffff160217905550620000626200006860201b60201c565b620003ea565b60008054906101000a900473ffffffffffffffffffffffffffffffffffffffff1673ffffffffffffffffffffffffffffffffffffffff163373ffffffffffffffffffffffffffffffffffffffff161480620001105750600160009054906101000a900473ffffffffffffffffffffffffffffffffffffffff1673ffffffffffffffffffffffffffffffffffffffff163373ffffffffffffffffffffffffffffffffffffffff16145b80620001695750600260009054906101000a900473ffffffffffffffffffffffffffffffffffffffff1673ffffffffffffffffffffffffffffffffffffffff163373ffffffffffffffffffffffffffffffffffffffff16145b620001ab576040517f08c379a0000000000000000000000000000000000000000000000000000000008152600401620001a290620002b0565b60405180910390fd5b6001600a4244604051602001620001c492919062000280565b6040516020818303038152906040528051906020012060001c620001e9919062000354565b620001f59190620002e3565b600681905550565b60006200020c602d83620002d2565b91507f4f6e6c7920746865206f776e65722063616e2067656e6572617465207468652060008301527f746172676574206e756d626572000000000000000000000000000000000000006020830152604082019050919050565b6200027a620002748262000340565b6200034a565b82525050565b60006200028e828562000265565b602082019150620002a0828462000265565b6020820191508190509392505050565b60006020820190508181036000830152620002cb81620001fd565b9050919050565b600082825260208201905092915050565b6000620002f08262000340565b9150620002fd8362000340565b9250827fffffffffffffffffffffffffffffffffffffffffffffffffffffffffffffffff038211156200033557620003346200038c565b5b828201905092915050565b6000819050919050565b6000819050919050565b6000620003618262000340565b91506200036e8362000340565b925082620003815762000380620003bb565b5b828206905092915050565b7f4e487b7100000000000000000000000000000000000000000000000000000000600052601160045260246000fd5b7f4e487b7100000000000000000000000000000000000000000000000000000000600052601260045260246000fd5b61210b80620003fa6000396000f3fe6080604052600436106100c25760003560e01c80638da5cb5b1161007f578063c12a19f411610059578063c12a19f414610213578063d30895e41461023c578063d4f77b1c14610267578063d9f8fd1214610271576100c2565b80638da5cb5b14610194578063ad832fc8146101bf578063b22e1d77146101e8576100c2565b806311289fba146100c75780632f6fe396146100f25780633ccfd60b1461011d5780634404a43814610134578063561e91a11461015f57806359a5f12d14610169575b600080fd5b3480156100d357600080fd5b506100dc61029c565b6040516100e99190611ebe565b60405180910390f35b3480156100fe57600080fd5b506101076102a2565b6040516101149190611d03565b60405180910390f35b34801561012957600080fd5b506101326102b5565b005b34801561014057600080fd5b50610149610665565b6040516101569190611ccd565b60405180910390f35b61016761068b565b005b34801561017557600080fd5b5061017e6109ba565b60405161018b9190611ce8565b60405180910390f35b3480156101a057600080fd5b506101a96109e0565b6040516101b69190611ce8565b60405180910390f35b3480156101cb57600080fd5b506101e660048036038101906101e191906117c8565b610a04565b005b3480156101f457600080fd5b506101fd610f4a565b60405161020a9190611ebe565b60405180910390f35b34801561021f57600080fd5b5061023a6004803603810190610235919061179f565b610fe3565b005b34801561024857600080fd5b5061025161107b565b60405161025e9190611ce8565b60405180910390f35b61026f6110a1565b005b34801561027d57600080fd5b506102866115fa565b6040516102939190611ebe565b60405180910390f35b60035481565b600760009054906101000a900460ff1681565b600160009054906101000a900473ffffffffffffffffffffffffffffffffffffffff1673ffffffffffffffffffffffffffffffffffffffff163373ffffffffffffffffffffffffffffffffffffffff16148061035e5750600260009054906101000a900473ffffffffffffffffffffffffffffffffffffffff1673ffffffffffffffffffffffffffffffffffffffff163373ffffffffffffffffffffffffffffffffffffffff16145b61039d576040517f08c379a000000000000000000000000000000000000000000000000000000000815260040161039490611d5e565b60405180910390fd5b600160009054906101000a900473ffffffffffffffffffffffffffffffffffffffff1673ffffffffffffffffffffffffffffffffffffffff163373ffffffffffffffffffffffffffffffffffffffff16141561050057600060026003546104049190611f40565b905060055481101561044b576040517f08c379a000000000000000000000000000000000000000000000000000000000815260040161044290611e7e565b60405180910390fd5b600160009054906101000a900473ffffffffffffffffffffffffffffffffffffffff1673ffffffffffffffffffffffffffffffffffffffff166108fc829081150290604051600060405180830381858888f193505050501580156104b3573d6000803e3d6000fd5b506000600160006101000a81548173ffffffffffffffffffffffffffffffffffffffff021916908373ffffffffffffffffffffffffffffffffffffffff1602179055506000600381905550505b600260009054906101000a900473ffffffffffffffffffffffffffffffffffffffff1673ffffffffffffffffffffffffffffffffffffffff163373ffffffffffffffffffffffffffffffffffffffff16141561066357600060026004546105679190611f40565b90506005548110156105ae576040517f08c379a00000000000000000000000000000000000000000000000000000000081526004016105a590611e7e565b60405180910390fd5b600260009054906101000a900473ffffffffffffffffffffffffffffffffffffffff1673ffffffffffffffffffffffffffffffffffffffff166108fc829081150290604051600060405180830381858888f19350505050158015610616573d6000803e3d6000fd5b506000600260006101000a81548173ffffffffffffffffffffffffffffffffffffffff021916908373ffffffffffffffffffffffffffffffffffffffff1602179055506000600481905550505b565b600760019054906101000a900473ffffffffffffffffffffffffffffffffffffffff1681565b600760009054906101000a900460ff16156106db576040517f08c379a00000000000000000000000000000000000000000000000000000000081526004016106d290611dde565b60405180910390fd5b600160009054906101000a900473ffffffffffffffffffffffffffffffffffffffff1673ffffffffffffffffffffffffffffffffffffffff163373ffffffffffffffffffffffffffffffffffffffff1614806107845750600260009054906101000a900473ffffffffffffffffffffffffffffffffffffffff1673ffffffffffffffffffffffffffffffffffffffff163373ffffffffffffffffffffffffffffffffffffffff16145b6107c3576040517f08c379a00000000000000000000000000000000000000000000000000000000081526004016107ba90611d5e565b60405180910390fd5b652d79883d200034101561080c576040517f08c379a000000000000000000000000000000000000000000000000000000000815260040161080390611e9e565b60405180910390fd5b600554341015610851576040517f08c379a000000000000000000000000000000000000000000000000000000000815260040161084890611d3e565b60405180910390fd5b600160009054906101000a900473ffffffffffffffffffffffffffffffffffffffff1673ffffffffffffffffffffffffffffffffffffffff163373ffffffffffffffffffffffffffffffffffffffff1614156109065733600160006101000a81548173ffffffffffffffffffffffffffffffffffffffff021916908373ffffffffffffffffffffffffffffffffffffffff16021790555034600360008282546108fa9190611eea565b925050819055506109b8565b600260009054906101000a900473ffffffffffffffffffffffffffffffffffffffff1673ffffffffffffffffffffffffffffffffffffffff163373ffffffffffffffffffffffffffffffffffffffff1614156109b75733600260006101000a81548173ffffffffffffffffffffffffffffffffffffffff021916908373ffffffffffffffffffffffffffffffffffffffff16021790555034600460008282546109af9190611eea565b925050819055505b5b565b600260009054906101000a900473ffffffffffffffffffffffffffffffffffffffff1681565b60008054906101000a900473ffffffffffffffffffffffffffffffffffffffff1681565b600760009054906101000a900460ff1615610a54576040517f08c379a0000000000000000000000000000000000000000000000000000000008152600401610a4b90611dde565b60405180910390fd5b600082118015610a655750600a8211155b610aa4576040517f08c379a0000000000000000000000000000000000000000000000000000000008152600401610a9b90611dbe565b60405180910390fd5b600081118015610ab55750600a8111155b610af4576040517f08c379a0000000000000000000000000000000000000000000000000000000008152600401610aeb90611dbe565b60405180910390fd5b60065482148015610b06575060065481145b15610cea576001600760006101000a81548160ff0219169083151502179055506000600454600354610b389190611eea565b905060008160035447610b4b9190611f71565b610b559190611f40565b905060008260045447610b689190611f71565b610b729190611f40565b9050600160009054906101000a900473ffffffffffffffffffffffffffffffffffffffff1673ffffffffffffffffffffffffffffffffffffffff166108fc839081150290604051600060405180830381858888f19350505050158015610bdc573d6000803e3d6000fd5b50600260009054906101000a900473ffffffffffffffffffffffffffffffffffffffff1673ffffffffffffffffffffffffffffffffffffffff166108fc829081150290604051600060405180830381858888f19350505050158015610c45573d6000803e3d6000fd5b50610c4e611600565b6000600160006101000a81548173ffffffffffffffffffffffffffffffffffffffff021916908373ffffffffffffffffffffffffffffffffffffffff1602179055506000600260006101000a81548173ffffffffffffffffffffffffffffffffffffffff021916908373ffffffffffffffffffffffffffffffffffffffff16021790555060006003819055506000600481905550505050610f46565b600654821415610e19576001600760006101000a81548160ff021916908315150217905550600160009054906101000a900473ffffffffffffffffffffffffffffffffffffffff1673ffffffffffffffffffffffffffffffffffffffff166108fc479081150290604051600060405180830381858888f19350505050158015610d77573d6000803e3d6000fd5b50610d80611600565b6000600160006101000a81548173ffffffffffffffffffffffffffffffffffffffff021916908373ffffffffffffffffffffffffffffffffffffffff1602179055506000600260006101000a81548173ffffffffffffffffffffffffffffffffffffffff021916908373ffffffffffffffffffffffffffffffffffffffff16021790555060006003819055506000600481905550610f45565b600654811415610f44576001600760006101000a81548160ff021916908315150217905550600260009054906101000a900473ffffffffffffffffffffffffffffffffffffffff1673ffffffffffffffffffffffffffffffffffffffff166108fc479081150290604051600060405180830381858888f19350505050158015610ea6573d6000803e3d6000fd5b50610eaf611600565b6000600160006101000a81548173ffffffffffffffffffffffffffffffffffffffff021916908373ffffffffffffffffffffffffffffffffffffffff1602179055506000600260006101000a81548173ffffffffffffffffffffffffffffffffffffffff021916908373ffffffffffffffffffffffffffffffffffffffff160217905550600060038190555060006004819055505b5b5b5050565b60008060009054906101000a900473ffffffffffffffffffffffffffffffffffffffff1673ffffffffffffffffffffffffffffffffffffffff163373ffffffffffffffffffffffffffffffffffffffff1614610fdb576040517f08c379a0000000000000000000000000000000000000000000000000000000008152600401610fd290611e3e565b60405180910390fd5b600654905090565b60008054906101000a900473ffffffffffffffffffffffffffffffffffffffff1673ffffffffffffffffffffffffffffffffffffffff163373ffffffffffffffffffffffffffffffffffffffff1614611071576040517f08c379a000000000000000000000000000000000000000000000000000000000815260040161106890611dfe565b60405180910390fd5b8060068190555050565b600160009054906101000a900473ffffffffffffffffffffffffffffffffffffffff1681565b600073ffffffffffffffffffffffffffffffffffffffff16600160009054906101000a900473ffffffffffffffffffffffffffffffffffffffff1673ffffffffffffffffffffffffffffffffffffffff16148061114c5750600073ffffffffffffffffffffffffffffffffffffffff16600260009054906101000a900473ffffffffffffffffffffffffffffffffffffffff1673ffffffffffffffffffffffffffffffffffffffff16145b61118b576040517f08c379a000000000000000000000000000000000000000000000000000000000815260040161118290611d7e565b60405180910390fd5b600160009054906101000a900473ffffffffffffffffffffffffffffffffffffffff1673ffffffffffffffffffffffffffffffffffffffff163373ffffffffffffffffffffffffffffffffffffffff16141561121c576040517f08c379a000000000000000000000000000000000000000000000000000000000815260040161121390611e1e565b60405180910390fd5b60008054906101000a900473ffffffffffffffffffffffffffffffffffffffff1673ffffffffffffffffffffffffffffffffffffffff163373ffffffffffffffffffffffffffffffffffffffff1614156112ab576040517f08c379a00000000000000000000000000000000000000000000000000000000081526004016112a290611e5e565b60405180910390fd5b652d79883d20003410156112f4576040517f08c379a00000000000000000000000000000000000000000000000000000000081526004016112eb90611e9e565b60405180910390fd5b600073ffffffffffffffffffffffffffffffffffffffff16600160009054906101000a900473ffffffffffffffffffffffffffffffffffffffff1673ffffffffffffffffffffffffffffffffffffffff1614156113fb5733600160006101000a81548173ffffffffffffffffffffffffffffffffffffffff021916908373ffffffffffffffffffffffffffffffffffffffff160217905550600160009054906101000a900473ffffffffffffffffffffffffffffffffffffffff16600760016101000a81548173ffffffffffffffffffffffffffffffffffffffff021916908373ffffffffffffffffffffffffffffffffffffffff160217905550346005819055506115dd565b600073ffffffffffffffffffffffffffffffffffffffff16600260009054906101000a900473ffffffffffffffffffffffffffffffffffffffff1673ffffffffffffffffffffffffffffffffffffffff1614156115dc57600554341015611497576040517f08c379a000000000000000000000000000000000000000000000000000000000815260040161148e90611d9e565b60405180910390fd5b33600260006101000a81548173ffffffffffffffffffffffffffffffffffffffff021916908373ffffffffffffffffffffffffffffffffffffffff160217905550600160009054906101000a900473ffffffffffffffffffffffffffffffffffffffff1673ffffffffffffffffffffffffffffffffffffffff16600760019054906101000a900473ffffffffffffffffffffffffffffffffffffffff1673ffffffffffffffffffffffffffffffffffffffff161461157757600260009054906101000a900473ffffffffffffffffffffffffffffffffffffffff1661159b565b600160009054906101000a900473ffffffffffffffffffffffffffffffffffffffff165b600760016101000a81548173ffffffffffffffffffffffffffffffffffffffff021916908373ffffffffffffffffffffffffffffffffffffffff1602179055505b5b6000600760006101000a81548160ff021916908315150217905550565b60045481565b60008054906101000a900473ffffffffffffffffffffffffffffffffffffffff1673ffffffffffffffffffffffffffffffffffffffff163373ffffffffffffffffffffffffffffffffffffffff1614806116a75750600160009054906101000a900473ffffffffffffffffffffffffffffffffffffffff1673ffffffffffffffffffffffffffffffffffffffff163373ffffffffffffffffffffffffffffffffffffffff16145b806116ff5750600260009054906101000a900473ffffffffffffffffffffffffffffffffffffffff1673ffffffffffffffffffffffffffffffffffffffff163373ffffffffffffffffffffffffffffffffffffffff16145b61173e576040517f08c379a000000000000000000000000000000000000000000000000000000000815260040161173590611d1e565b60405180910390fd5b6001600a4244604051602001611755929190611ca1565b6040516020818303038152906040528051906020012060001c611778919061202f565b6117829190611eea565b600681905550565b600081359050611799816120be565b92915050565b6000602082840312156117b157600080fd5b60006117bf8482850161178a565b91505092915050565b600080604083850312156117db57600080fd5b60006117e98582860161178a565b92505060206117fa8582860161178a565b9150509250929050565b61180d81611fdd565b82525050565b61181c81611fcb565b82525050565b61182b81611fef565b82525050565b600061183e602d83611ed9565b91507f4f6e6c7920746865206f776e65722063616e2067656e6572617465207468652060008301527f746172676574206e756d626572000000000000000000000000000000000000006020830152604082019050919050565b60006118a4604483611ed9565b91507f506c656173652073656e64206574686572207769746820796f7572206775657360008301527f7320657175616c206f7220686967686572207468616e2074686520656e74727960208301527f20666565000000000000000000000000000000000000000000000000000000006040830152606082019050919050565b6000611930600c83611ed9565b91507f4e6f74206120706c6179657200000000000000000000000000000000000000006000830152602082019050919050565b6000611970601483611ed9565b91507f47616d6520697320616c72656164792066756c6c0000000000000000000000006000830152602082019050919050565b60006119b0602b83611ed9565b91507f546865206574686572206e656564656420746f206a6f696e206e65656473207460008301527f6f206265206869676865720000000000000000000000000000000000000000006020830152604082019050919050565b6000611a16601e83611ed9565b91507f4775657373206d757374206265206265747765656e203120616e6420313000006000830152602082019050919050565b6000611a56601683611ed9565b91507f47616d652068617320616c726561647920656e646564000000000000000000006000830152602082019050919050565b6000611a96602883611ed9565b91507f4f6e6c7920746865206f776e65722063616e207365742074686520746172676560008301527f74206e756d6265720000000000000000000000000000000000000000000000006020830152604082019050919050565b6000611afc602083611ed9565b91507f796f75206861766520616c7265616479206a6f696e6564207468652067616d656000830152602082019050919050565b6000611b3c602983611ed9565b91507f4f6e6c7920746865206f776e65722063616e207669657720746865207461726760008301527f6574206e756d62657200000000000000000000000000000000000000000000006020830152604082019050919050565b6000611ba2601a83611ed9565b91507f4f776e65722063616e6e6f74206a6f696e207468652067616d650000000000006000830152602082019050919050565b6000611be2601683611ed9565b91507f4e6f2062616c616e636520746f207769746864726177000000000000000000006000830152602082019050919050565b6000611c22602783611ed9565b91507f506c656173652073656e64206d6f726520657468657220746f206a6f696e207460008301527f68652067616d65000000000000000000000000000000000000000000000000006020830152604082019050919050565b611c848161201b565b82525050565b611c9b611c968261201b565b612025565b82525050565b6000611cad8285611c8a565b602082019150611cbd8284611c8a565b6020820191508190509392505050565b6000602082019050611ce26000830184611813565b92915050565b6000602082019050611cfd6000830184611804565b92915050565b6000602082019050611d186000830184611822565b92915050565b60006020820190508181036000830152611d3781611831565b9050919050565b60006020820190508181036000830152611d5781611897565b9050919050565b60006020820190508181036000830152611d7781611923565b9050919050565b60006020820190508181036000830152611d9781611963565b9050919050565b60006020820190508181036000830152611db7816119a3565b9050919050565b60006020820190508181036000830152611dd781611a09565b9050919050565b60006020820190508181036000830152611df781611a49565b9050919050565b60006020820190508181036000830152611e1781611a89565b9050919050565b60006020820190508181036000830152611e3781611aef565b9050919050565b60006020820190508181036000830152611e5781611b2f565b9050919050565b60006020820190508181036000830152611e7781611b95565b9050919050565b60006020820190508181036000830152611e9781611bd5565b9050919050565b60006020820190508181036000830152611eb781611c15565b9050919050565b6000602082019050611ed36000830184611c7b565b92915050565b600082825260208201905092915050565b6000611ef58261201b565b9150611f008361201b565b9250827fffffffffffffffffffffffffffffffffffffffffffffffffffffffffffffffff03821115611f3557611f34612060565b5b828201905092915050565b6000611f4b8261201b565b9150611f568361201b565b925082611f6657611f6561208f565b5b828204905092915050565b6000611f7c8261201b565b9150611f878361201b565b9250817fffffffffffffffffffffffffffffffffffffffffffffffffffffffffffffffff0483118215151615611fc057611fbf612060565b5b828202905092915050565b6000611fd682611ffb565b9050919050565b6000611fe882611ffb565b9050919050565b60008115159050919050565b600073ffffffffffffffffffffffffffffffffffffffff82169050919050565b6000819050919050565b6000819050919050565b600061203a8261201b565b91506120458361201b565b9250826120555761205461208f565b5b828206905092915050565b7f4e487b7100000000000000000000000000000000000000000000000000000000600052601160045260246000fd5b7f4e487b7100000000000000000000000000000000000000000000000000000000600052601260045260246000fd5b6120c78161201b565b81146120d257600080fd5b5056fea2646970667358221220006528994369d0894e004d75a616627289a9f153580fab59616e5769457bc57164736f6c63430008000033",
  "linkReferences": {},
  "deployedLinkReferences": {}
}