{
  "_format": "hh-sol-artifact-1",
  "contractName": "NumberGame",
  "sourceName": "contracts/NumberGame.sol",
  "abi": [
    {
      "inputs": [],
      "stateMutability": "nonpayable",
      "type": "constructor"
    },
    {
      "inputs": [],
      "name": "currentPlayer",
      "outputs": [
        {
          "internalType": "address",
          "name": "",
          "type": "address"
        }
      ],
      "stateMutability": "view",
      "type": "function"
    },
    {
      "inputs": [],
      "name": "gameEnded",
      "outputs": [
        {
          "internalType": "bool",
          "name": "",
          "type": "bool"
        }
      ],
      "stateMutability": "view",
      "type": "function"
    },
    {
      "inputs": [],
      "name": "getTargetNumber",
      "outputs": [
        {
          "internalType": "uint256",
          "name": "",
          "type": "uint256"
        }
      ],
      "stateMutability": "view",
      "type": "function"
    },
    {
      "inputs": [],
      "name": "joinGame",
      "outputs": [],
      "stateMutability": "payable",
      "type": "function"
    },
    {
      "inputs": [],
      "name": "makeBet",
      "outputs": [],
      "stateMutability": "payable",
      "type": "function"
    },
    {
      "inputs": [
        {
          "internalType": "uint256",
          "name": "p1Guess",
          "type": "uint256"
        },
        {
          "internalType": "uint256",
          "name": "p2Guess",
          "type": "uint256"
        }
      ],
      "name": "makeGuess",
      "outputs": [],
      "stateMutability": "nonpayable",
      "type": "function"
    },
    {
      "inputs": [],
      "name": "owner",
      "outputs": [
        {
          "internalType": "address payable",
          "name": "",
          "type": "address"
        }
      ],
      "stateMutability": "view",
      "type": "function"
    },
    {
      "inputs": [],
      "name": "player1",
      "outputs": [
        {
          "internalType": "address payable",
          "name": "",
          "type": "address"
        }
      ],
      "stateMutability": "view",
      "type": "function"
    },
    {
      "inputs": [],
      "name": "player1Bet",
      "outputs": [
        {
          "internalType": "uint256",
          "name": "",
          "type": "uint256"
        }
      ],
      "stateMutability": "view",
      "type": "function"
    },
    {
      "inputs": [],
      "name": "player2",
      "outputs": [
        {
          "internalType": "address payable",
          "name": "",
          "type": "address"
        }
      ],
      "stateMutability": "view",
      "type": "function"
    },
    {
      "inputs": [],
      "name": "player2Bet",
      "outputs": [
        {
          "internalType": "uint256",
          "name": "",
          "type": "uint256"
        }
      ],
      "stateMutability": "view",
      "type": "function"
    },
    {
      "inputs": [],
      "name": "withdraw",
      "outputs": [],
      "stateMutability": "nonpayable",
      "type": "function"
    }
  ],
  "bytecode": "0x60806040523480156200001157600080fd5b50336000806101000a81548173ffffffffffffffffffffffffffffffffffffffff021916908373ffffffffffffffffffffffffffffffffffffffff160217905550620000626200006860201b60201c565b620003ea565b60008054906101000a900473ffffffffffffffffffffffffffffffffffffffff1673ffffffffffffffffffffffffffffffffffffffff163373ffffffffffffffffffffffffffffffffffffffff161480620001105750600160009054906101000a900473ffffffffffffffffffffffffffffffffffffffff1673ffffffffffffffffffffffffffffffffffffffff163373ffffffffffffffffffffffffffffffffffffffff16145b80620001695750600260009054906101000a900473ffffffffffffffffffffffffffffffffffffffff1673ffffffffffffffffffffffffffffffffffffffff163373ffffffffffffffffffffffffffffffffffffffff16145b620001ab576040517f08c379a0000000000000000000000000000000000000000000000000000000008152600401620001a290620002b0565b60405180910390fd5b6001600a4244604051602001620001c492919062000280565b6040516020818303038152906040528051906020012060001c620001e9919062000354565b620001f59190620002e3565b600681905550565b60006200020c602d83620002d2565b91507f4f6e6c7920746865206f776e65722063616e2067656e6572617465207468652060008301527f746172676574206e756d626572000000000000000000000000000000000000006020830152604082019050919050565b6200027a620002748262000340565b6200034a565b82525050565b60006200028e828562000265565b602082019150620002a0828462000265565b6020820191508190509392505050565b60006020820190508181036000830152620002cb81620001fd565b9050919050565b600082825260208201905092915050565b6000620002f08262000340565b9150620002fd8362000340565b9250827fffffffffffffffffffffffffffffffffffffffffffffffffffffffffffffffff038211156200033557620003346200038c565b5b828201905092915050565b6000819050919050565b6000819050919050565b6000620003618262000340565b91506200036e8362000340565b925082620003815762000380620003bb565b5b828206905092915050565b7f4e487b7100000000000000000000000000000000000000000000000000000000600052601160045260246000fd5b7f4e487b7100000000000000000000000000000000000000000000000000000000600052601260045260246000fd5b611f8080620003fa6000396000f3fe6080604052600436106100a75760003560e01c80638da5cb5b116100645780638da5cb5b14610179578063ad832fc8146101a4578063b22e1d77146101cd578063d30895e4146101f8578063d4f77b1c14610223578063d9f8fd121461022d576100a7565b806311289fba146100ac5780632f6fe396146100d75780633ccfd60b146101025780634404a43814610119578063561e91a11461014457806359a5f12d1461014e575b600080fd5b3480156100b857600080fd5b506100c1610258565b6040516100ce9190611d33565b60405180910390f35b3480156100e357600080fd5b506100ec61025e565b6040516100f99190611b98565b60405180910390f35b34801561010e57600080fd5b50610117610271565b005b34801561012557600080fd5b5061012e610621565b60405161013b9190611b62565b60405180910390f35b61014c610647565b005b34801561015a57600080fd5b50610163610976565b6040516101709190611b7d565b60405180910390f35b34801561018557600080fd5b5061018e61099c565b60405161019b9190611b7d565b60405180910390f35b3480156101b057600080fd5b506101cb60048036038101906101c691906116c3565b6109c0565b005b3480156101d957600080fd5b506101e2610f06565b6040516101ef9190611d33565b60405180910390f35b34801561020457600080fd5b5061020d610f9f565b60405161021a9190611b7d565b60405180910390f35b61022b610fc5565b005b34801561023957600080fd5b5061024261151e565b60405161024f9190611d33565b60405180910390f35b60035481565b600760009054906101000a900460ff1681565b600160009054906101000a900473ffffffffffffffffffffffffffffffffffffffff1673ffffffffffffffffffffffffffffffffffffffff163373ffffffffffffffffffffffffffffffffffffffff16148061031a5750600260009054906101000a900473ffffffffffffffffffffffffffffffffffffffff1673ffffffffffffffffffffffffffffffffffffffff163373ffffffffffffffffffffffffffffffffffffffff16145b610359576040517f08c379a000000000000000000000000000000000000000000000000000000000815260040161035090611bf3565b60405180910390fd5b600160009054906101000a900473ffffffffffffffffffffffffffffffffffffffff1673ffffffffffffffffffffffffffffffffffffffff163373ffffffffffffffffffffffffffffffffffffffff1614156104bc57600060026003546103c09190611db5565b9050600554811015610407576040517f08c379a00000000000000000000000000000000000000000000000000000000081526004016103fe90611cf3565b60405180910390fd5b600160009054906101000a900473ffffffffffffffffffffffffffffffffffffffff1673ffffffffffffffffffffffffffffffffffffffff166108fc829081150290604051600060405180830381858888f1935050505015801561046f573d6000803e3d6000fd5b506000600160006101000a81548173ffffffffffffffffffffffffffffffffffffffff021916908373ffffffffffffffffffffffffffffffffffffffff1602179055506000600381905550505b600260009054906101000a900473ffffffffffffffffffffffffffffffffffffffff1673ffffffffffffffffffffffffffffffffffffffff163373ffffffffffffffffffffffffffffffffffffffff16141561061f57600060026004546105239190611db5565b905060055481101561056a576040517f08c379a000000000000000000000000000000000000000000000000000000000815260040161056190611cf3565b60405180910390fd5b600260009054906101000a900473ffffffffffffffffffffffffffffffffffffffff1673ffffffffffffffffffffffffffffffffffffffff166108fc829081150290604051600060405180830381858888f193505050501580156105d2573d6000803e3d6000fd5b506000600260006101000a81548173ffffffffffffffffffffffffffffffffffffffff021916908373ffffffffffffffffffffffffffffffffffffffff1602179055506000600481905550505b565b600760019054906101000a900473ffffffffffffffffffffffffffffffffffffffff1681565b600760009054906101000a900460ff1615610697576040517f08c379a000000000000000000000000000000000000000000000000000000000815260040161068e90611c73565b60405180910390fd5b600160009054906101000a900473ffffffffffffffffffffffffffffffffffffffff1673ffffffffffffffffffffffffffffffffffffffff163373ffffffffffffffffffffffffffffffffffffffff1614806107405750600260009054906101000a900473ffffffffffffffffffffffffffffffffffffffff1673ffffffffffffffffffffffffffffffffffffffff163373ffffffffffffffffffffffffffffffffffffffff16145b61077f576040517f08c379a000000000000000000000000000000000000000000000000000000000815260040161077690611bf3565b60405180910390fd5b652d79883d20003410156107c8576040517f08c379a00000000000000000000000000000000000000000000000000000000081526004016107bf90611d13565b60405180910390fd5b60055434101561080d576040517f08c379a000000000000000000000000000000000000000000000000000000000815260040161080490611bd3565b60405180910390fd5b600160009054906101000a900473ffffffffffffffffffffffffffffffffffffffff1673ffffffffffffffffffffffffffffffffffffffff163373ffffffffffffffffffffffffffffffffffffffff1614156108c25733600160006101000a81548173ffffffffffffffffffffffffffffffffffffffff021916908373ffffffffffffffffffffffffffffffffffffffff16021790555034600360008282546108b69190611d5f565b92505081905550610974565b600260009054906101000a900473ffffffffffffffffffffffffffffffffffffffff1673ffffffffffffffffffffffffffffffffffffffff163373ffffffffffffffffffffffffffffffffffffffff1614156109735733600260006101000a81548173ffffffffffffffffffffffffffffffffffffffff021916908373ffffffffffffffffffffffffffffffffffffffff160217905550346004600082825461096b9190611d5f565b925050819055505b5b565b600260009054906101000a900473ffffffffffffffffffffffffffffffffffffffff1681565b60008054906101000a900473ffffffffffffffffffffffffffffffffffffffff1681565b600760009054906101000a900460ff1615610a10576040517f08c379a0000000000000000000000000000000000000000000000000000000008152600401610a0790611c73565b60405180910390fd5b600082118015610a215750600a8211155b610a60576040517f08c379a0000000000000000000000000000000000000000000000000000000008152600401610a5790611c53565b60405180910390fd5b600081118015610a715750600a8111155b610ab0576040517f08c379a0000000000000000000000000000000000000000000000000000000008152600401610aa790611c53565b60405180910390fd5b60065482148015610ac2575060065481145b15610ca6576001600760006101000a81548160ff0219169083151502179055506000600454600354610af49190611d5f565b905060008160035447610b079190611de6565b610b119190611db5565b905060008260045447610b249190611de6565b610b2e9190611db5565b9050600160009054906101000a900473ffffffffffffffffffffffffffffffffffffffff1673ffffffffffffffffffffffffffffffffffffffff166108fc839081150290604051600060405180830381858888f19350505050158015610b98573d6000803e3d6000fd5b50600260009054906101000a900473ffffffffffffffffffffffffffffffffffffffff1673ffffffffffffffffffffffffffffffffffffffff166108fc829081150290604051600060405180830381858888f19350505050158015610c01573d6000803e3d6000fd5b50610c0a611524565b6000600160006101000a81548173ffffffffffffffffffffffffffffffffffffffff021916908373ffffffffffffffffffffffffffffffffffffffff1602179055506000600260006101000a81548173ffffffffffffffffffffffffffffffffffffffff021916908373ffffffffffffffffffffffffffffffffffffffff16021790555060006003819055506000600481905550505050610f02565b600654821415610dd5576001600760006101000a81548160ff021916908315150217905550600160009054906101000a900473ffffffffffffffffffffffffffffffffffffffff1673ffffffffffffffffffffffffffffffffffffffff166108fc479081150290604051600060405180830381858888f19350505050158015610d33573d6000803e3d6000fd5b50610d3c611524565b6000600160006101000a81548173ffffffffffffffffffffffffffffffffffffffff021916908373ffffffffffffffffffffffffffffffffffffffff1602179055506000600260006101000a81548173ffffffffffffffffffffffffffffffffffffffff021916908373ffffffffffffffffffffffffffffffffffffffff16021790555060006003819055506000600481905550610f01565b600654811415610f00576001600760006101000a81548160ff021916908315150217905550600260009054906101000a900473ffffffffffffffffffffffffffffffffffffffff1673ffffffffffffffffffffffffffffffffffffffff166108fc479081150290604051600060405180830381858888f19350505050158015610e62573d6000803e3d6000fd5b50610e6b611524565b6000600160006101000a81548173ffffffffffffffffffffffffffffffffffffffff021916908373ffffffffffffffffffffffffffffffffffffffff1602179055506000600260006101000a81548173ffffffffffffffffffffffffffffffffffffffff021916908373ffffffffffffffffffffffffffffffffffffffff160217905550600060038190555060006004819055505b5b5b5050565b60008060009054906101000a900473ffffffffffffffffffffffffffffffffffffffff1673ffffffffffffffffffffffffffffffffffffffff163373ffffffffffffffffffffffffffffffffffffffff1614610f97576040517f08c379a0000000000000000000000000000000000000000000000000000000008152600401610f8e90611cb3565b60405180910390fd5b600654905090565b600160009054906101000a900473ffffffffffffffffffffffffffffffffffffffff1681565b600073ffffffffffffffffffffffffffffffffffffffff16600160009054906101000a900473ffffffffffffffffffffffffffffffffffffffff1673ffffffffffffffffffffffffffffffffffffffff1614806110705750600073ffffffffffffffffffffffffffffffffffffffff16600260009054906101000a900473ffffffffffffffffffffffffffffffffffffffff1673ffffffffffffffffffffffffffffffffffffffff16145b6110af576040517f08c379a00000000000000000000000000000000000000000000000000000000081526004016110a690611c13565b60405180910390fd5b600160009054906101000a900473ffffffffffffffffffffffffffffffffffffffff1673ffffffffffffffffffffffffffffffffffffffff163373ffffffffffffffffffffffffffffffffffffffff161415611140576040517f08c379a000000000000000000000000000000000000000000000000000000000815260040161113790611c93565b60405180910390fd5b60008054906101000a900473ffffffffffffffffffffffffffffffffffffffff1673ffffffffffffffffffffffffffffffffffffffff163373ffffffffffffffffffffffffffffffffffffffff1614156111cf576040517f08c379a00000000000000000000000000000000000000000000000000000000081526004016111c690611cd3565b60405180910390fd5b652d79883d2000341015611218576040517f08c379a000000000000000000000000000000000000000000000000000000000815260040161120f90611d13565b60405180910390fd5b600073ffffffffffffffffffffffffffffffffffffffff16600160009054906101000a900473ffffffffffffffffffffffffffffffffffffffff1673ffffffffffffffffffffffffffffffffffffffff16141561131f5733600160006101000a81548173ffffffffffffffffffffffffffffffffffffffff021916908373ffffffffffffffffffffffffffffffffffffffff160217905550600160009054906101000a900473ffffffffffffffffffffffffffffffffffffffff16600760016101000a81548173ffffffffffffffffffffffffffffffffffffffff021916908373ffffffffffffffffffffffffffffffffffffffff16021790555034600581905550611501565b600073ffffffffffffffffffffffffffffffffffffffff16600260009054906101000a900473ffffffffffffffffffffffffffffffffffffffff1673ffffffffffffffffffffffffffffffffffffffff161415611500576005543410156113bb576040517f08c379a00000000000000000000000000000000000000000000000000000000081526004016113b290611c33565b60405180910390fd5b33600260006101000a81548173ffffffffffffffffffffffffffffffffffffffff021916908373ffffffffffffffffffffffffffffffffffffffff160217905550600160009054906101000a900473ffffffffffffffffffffffffffffffffffffffff1673ffffffffffffffffffffffffffffffffffffffff16600760019054906101000a900473ffffffffffffffffffffffffffffffffffffffff1673ffffffffffffffffffffffffffffffffffffffff161461149b57600260009054906101000a900473ffffffffffffffffffffffffffffffffffffffff166114bf565b600160009054906101000a900473ffffffffffffffffffffffffffffffffffffffff165b600760016101000a81548173ffffffffffffffffffffffffffffffffffffffff021916908373ffffffffffffffffffffffffffffffffffffffff1602179055505b5b6000600760006101000a81548160ff021916908315150217905550565b60045481565b60008054906101000a900473ffffffffffffffffffffffffffffffffffffffff1673ffffffffffffffffffffffffffffffffffffffff163373ffffffffffffffffffffffffffffffffffffffff1614806115cb5750600160009054906101000a900473ffffffffffffffffffffffffffffffffffffffff1673ffffffffffffffffffffffffffffffffffffffff163373ffffffffffffffffffffffffffffffffffffffff16145b806116235750600260009054906101000a900473ffffffffffffffffffffffffffffffffffffffff1673ffffffffffffffffffffffffffffffffffffffff163373ffffffffffffffffffffffffffffffffffffffff16145b611662576040517f08c379a000000000000000000000000000000000000000000000000000000000815260040161165990611bb3565b60405180910390fd5b6001600a4244604051602001611679929190611b36565b6040516020818303038152906040528051906020012060001c61169c9190611ea4565b6116a69190611d5f565b600681905550565b6000813590506116bd81611f33565b92915050565b600080604083850312156116d657600080fd5b60006116e4858286016116ae565b92505060206116f5858286016116ae565b9150509250929050565b61170881611e52565b82525050565b61171781611e40565b82525050565b61172681611e64565b82525050565b6000611739602d83611d4e565b91507f4f6e6c7920746865206f776e65722063616e2067656e6572617465207468652060008301527f746172676574206e756d626572000000000000000000000000000000000000006020830152604082019050919050565b600061179f604483611d4e565b91507f506c656173652073656e64206574686572207769746820796f7572206775657360008301527f7320657175616c206f7220686967686572207468616e2074686520656e74727960208301527f20666565000000000000000000000000000000000000000000000000000000006040830152606082019050919050565b600061182b600c83611d4e565b91507f4e6f74206120706c6179657200000000000000000000000000000000000000006000830152602082019050919050565b600061186b601483611d4e565b91507f47616d6520697320616c72656164792066756c6c0000000000000000000000006000830152602082019050919050565b60006118ab602b83611d4e565b91507f546865206574686572206e656564656420746f206a6f696e206e65656473207460008301527f6f206265206869676865720000000000000000000000000000000000000000006020830152604082019050919050565b6000611911601e83611d4e565b91507f4775657373206d757374206265206265747765656e203120616e6420313000006000830152602082019050919050565b6000611951601683611d4e565b91507f47616d652068617320616c726561647920656e646564000000000000000000006000830152602082019050919050565b6000611991602083611d4e565b91507f796f75206861766520616c7265616479206a6f696e6564207468652067616d656000830152602082019050919050565b60006119d1602983611d4e565b91507f4f6e6c7920746865206f776e65722063616e207669657720746865207461726760008301527f6574206e756d62657200000000000000000000000000000000000000000000006020830152604082019050919050565b6000611a37601a83611d4e565b91507f4f776e65722063616e6e6f74206a6f696e207468652067616d650000000000006000830152602082019050919050565b6000611a77601683611d4e565b91507f4e6f2062616c616e636520746f207769746864726177000000000000000000006000830152602082019050919050565b6000611ab7602783611d4e565b91507f506c656173652073656e64206d6f726520657468657220746f206a6f696e207460008301527f68652067616d65000000000000000000000000000000000000000000000000006020830152604082019050919050565b611b1981611e90565b82525050565b611b30611b2b82611e90565b611e9a565b82525050565b6000611b428285611b1f565b602082019150611b528284611b1f565b6020820191508190509392505050565b6000602082019050611b77600083018461170e565b92915050565b6000602082019050611b9260008301846116ff565b92915050565b6000602082019050611bad600083018461171d565b92915050565b60006020820190508181036000830152611bcc8161172c565b9050919050565b60006020820190508181036000830152611bec81611792565b9050919050565b60006020820190508181036000830152611c0c8161181e565b9050919050565b60006020820190508181036000830152611c2c8161185e565b9050919050565b60006020820190508181036000830152611c4c8161189e565b9050919050565b60006020820190508181036000830152611c6c81611904565b9050919050565b60006020820190508181036000830152611c8c81611944565b9050919050565b60006020820190508181036000830152611cac81611984565b9050919050565b60006020820190508181036000830152611ccc816119c4565b9050919050565b60006020820190508181036000830152611cec81611a2a565b9050919050565b60006020820190508181036000830152611d0c81611a6a565b9050919050565b60006020820190508181036000830152611d2c81611aaa565b9050919050565b6000602082019050611d486000830184611b10565b92915050565b600082825260208201905092915050565b6000611d6a82611e90565b9150611d7583611e90565b9250827fffffffffffffffffffffffffffffffffffffffffffffffffffffffffffffffff03821115611daa57611da9611ed5565b5b828201905092915050565b6000611dc082611e90565b9150611dcb83611e90565b925082611ddb57611dda611f04565b5b828204905092915050565b6000611df182611e90565b9150611dfc83611e90565b9250817fffffffffffffffffffffffffffffffffffffffffffffffffffffffffffffffff0483118215151615611e3557611e34611ed5565b5b828202905092915050565b6000611e4b82611e70565b9050919050565b6000611e5d82611e70565b9050919050565b60008115159050919050565b600073ffffffffffffffffffffffffffffffffffffffff82169050919050565b6000819050919050565b6000819050919050565b6000611eaf82611e90565b9150611eba83611e90565b925082611eca57611ec9611f04565b5b828206905092915050565b7f4e487b7100000000000000000000000000000000000000000000000000000000600052601160045260246000fd5b7f4e487b7100000000000000000000000000000000000000000000000000000000600052601260045260246000fd5b611f3c81611e90565b8114611f4757600080fd5b5056fea264697066735822122000373a8e6711773bafb5761462bf050abe2277713d9cbeb1405a4444e36dee4764736f6c63430008000033",
  "linkReferences": {},
  "deployedLinkReferences": {}
}