{
  "_format": "hh-sol-artifact-1",
  "contractName": "NumberGame",
  "sourceName": "contracts/NumberGame.sol",
  "abi": [
    {
      "inputs": [
        {
          "internalType": "uint256",
          "name": "_defaultMinBet",
          "type": "uint256"
        }
      ],
      "stateMutability": "payable",
      "type": "constructor"
    },
    {
      "inputs": [],
      "name": "currentPlayer",
      "outputs": [
        {
          "internalType": "address",
          "name": "",
          "type": "address"
        }
      ],
      "stateMutability": "view",
      "type": "function"
    },
    {
      "inputs": [],
      "name": "currentState",
      "outputs": [
        {
          "internalType": "enum NumberGame.GameState",
          "name": "",
          "type": "uint8"
        }
      ],
      "stateMutability": "view",
      "type": "function"
    },
    {
      "inputs": [],
      "name": "defaultMinBet",
      "outputs": [
        {
          "internalType": "uint256",
          "name": "",
          "type": "uint256"
        }
      ],
      "stateMutability": "view",
      "type": "function"
    },
    {
      "inputs": [
        {
          "internalType": "uint256",
          "name": "p1Guess",
          "type": "uint256"
        },
        {
          "internalType": "uint256",
          "name": "p2Guess",
          "type": "uint256"
        }
      ],
      "name": "finalizeGame",
      "outputs": [],
      "stateMutability": "nonpayable",
      "type": "function"
    },
    {
      "inputs": [],
      "name": "gameEnded",
      "outputs": [
        {
          "internalType": "bool",
          "name": "",
          "type": "bool"
        }
      ],
      "stateMutability": "view",
      "type": "function"
    },
    {
      "inputs": [],
      "name": "getTargetNumber",
      "outputs": [
        {
          "internalType": "uint256",
          "name": "",
          "type": "uint256"
        }
      ],
      "stateMutability": "view",
      "type": "function"
    },
    {
      "inputs": [],
      "name": "joinGame",
      "outputs": [],
      "stateMutability": "payable",
      "type": "function"
    },
    {
      "inputs": [
        {
          "internalType": "uint256",
          "name": "guessNumber",
          "type": "uint256"
        }
      ],
      "name": "makeGuess",
      "outputs": [],
      "stateMutability": "payable",
      "type": "function"
    },
    {
      "inputs": [],
      "name": "minimumBet",
      "outputs": [
        {
          "internalType": "uint256",
          "name": "",
          "type": "uint256"
        }
      ],
      "stateMutability": "view",
      "type": "function"
    },
    {
      "inputs": [],
      "name": "owner",
      "outputs": [
        {
          "internalType": "address payable",
          "name": "",
          "type": "address"
        }
      ],
      "stateMutability": "view",
      "type": "function"
    },
    {
      "inputs": [],
      "name": "p1BetStatus",
      "outputs": [
        {
          "internalType": "bool",
          "name": "",
          "type": "bool"
        }
      ],
      "stateMutability": "view",
      "type": "function"
    },
    {
      "inputs": [],
      "name": "p2BetStatus",
      "outputs": [
        {
          "internalType": "bool",
          "name": "",
          "type": "bool"
        }
      ],
      "stateMutability": "view",
      "type": "function"
    },
    {
      "inputs": [],
      "name": "player1",
      "outputs": [
        {
          "internalType": "address payable",
          "name": "",
          "type": "address"
        }
      ],
      "stateMutability": "view",
      "type": "function"
    },
    {
      "inputs": [],
      "name": "player1Bet",
      "outputs": [
        {
          "internalType": "uint256",
          "name": "",
          "type": "uint256"
        }
      ],
      "stateMutability": "view",
      "type": "function"
    },
    {
      "inputs": [],
      "name": "player2",
      "outputs": [
        {
          "internalType": "address payable",
          "name": "",
          "type": "address"
        }
      ],
      "stateMutability": "view",
      "type": "function"
    },
    {
      "inputs": [],
      "name": "player2Bet",
      "outputs": [
        {
          "internalType": "uint256",
          "name": "",
          "type": "uint256"
        }
      ],
      "stateMutability": "view",
      "type": "function"
    },
    {
      "inputs": [
        {
          "internalType": "uint256",
          "name": "newMinimumBet",
          "type": "uint256"
        }
      ],
      "name": "setMinimumBet",
      "outputs": [],
      "stateMutability": "nonpayable",
      "type": "function"
    },
    {
      "inputs": [
        {
          "internalType": "uint256",
          "name": "newTargetNumber",
          "type": "uint256"
        }
      ],
      "name": "setTargetNumber",
      "outputs": [],
      "stateMutability": "nonpayable",
      "type": "function"
    },
    {
      "inputs": [],
      "name": "withdraw",
      "outputs": [],
      "stateMutability": "nonpayable",
      "type": "function"
    }
  ],
  "bytecode": "0x608060405260405162002e5538038062002e55833981810160405281019062000029919062000236565b33600060016101000a81548173ffffffffffffffffffffffffffffffffffffffff021916908373ffffffffffffffffffffffffffffffffffffffff1602179055506200007a6200008860201b60201c565b806006819055505062000469565b600060019054906101000a900473ffffffffffffffffffffffffffffffffffffffff1673ffffffffffffffffffffffffffffffffffffffff163373ffffffffffffffffffffffffffffffffffffffff161480620001325750600160009054906101000a900473ffffffffffffffffffffffffffffffffffffffff1673ffffffffffffffffffffffffffffffffffffffff163373ffffffffffffffffffffffffffffffffffffffff16145b806200018b5750600260009054906101000a900473ffffffffffffffffffffffffffffffffffffffff1673ffffffffffffffffffffffffffffffffffffffff163373ffffffffffffffffffffffffffffffffffffffff16145b620001cd576040517f08c379a0000000000000000000000000000000000000000000000000000000008152600401620001c49062000315565b60405180910390fd5b6001600a4244604051602001620001e6929190620002e5565b6040516020818303038152906040528051906020012060001c6200020b9190620003b9565b62000217919062000348565b600781905550565b60008151905062000230816200044f565b92915050565b6000602082840312156200024957600080fd5b600062000259848285016200021f565b91505092915050565b600062000271602d8362000337565b91507f4f6e6c7920746865206f776e65722063616e2067656e6572617465207468652060008301527f746172676574206e756d626572000000000000000000000000000000000000006020830152604082019050919050565b620002df620002d982620003a5565b620003af565b82525050565b6000620002f38285620002ca565b602082019150620003058284620002ca565b6020820191508190509392505050565b60006020820190508181036000830152620003308162000262565b9050919050565b600082825260208201905092915050565b60006200035582620003a5565b91506200036283620003a5565b9250827fffffffffffffffffffffffffffffffffffffffffffffffffffffffffffffffff038211156200039a5762000399620003f1565b5b828201905092915050565b6000819050919050565b6000819050919050565b6000620003c682620003a5565b9150620003d383620003a5565b925082620003e657620003e562000420565b5b828206905092915050565b7f4e487b7100000000000000000000000000000000000000000000000000000000600052601160045260246000fd5b7f4e487b7100000000000000000000000000000000000000000000000000000000600052601260045260246000fd5b6200045a81620003a5565b81146200046657600080fd5b50565b6129dc80620004796000396000f3fe6080604052600436106101145760003560e01c80638772ae3c116100a0578063c38a8afd11610064578063c38a8afd1461034c578063d30895e414610377578063d4f77b1c146103a2578063d9f8fd12146103ac578063dac8102f146103d757610114565b80638772ae3c146102795780638da5cb5b146102a257806396e14908146102cd578063b22e1d77146102f8578063c12a19f41461032357610114565b80632f6fe396116100e75780632f6fe396146101b65780633ccfd60b146101e15780633fb809a2146101f85780634404a4381461022357806359a5f12d1461024e57610114565b80630c3f6acf1461011957806311289fba14610144578063135340d51461016f57806322666da61461019a575b600080fd5b34801561012557600080fd5b5061012e610400565b60405161013b919061250c565b60405180910390f35b34801561015057600080fd5b50610159610411565b6040516101669190612727565b60405180910390f35b34801561017b57600080fd5b50610184610417565b60405161019191906124f1565b60405180910390f35b6101b460048036038101906101af9190611e98565b61042a565b005b3480156101c257600080fd5b506101cb610a77565b6040516101d891906124f1565b60405180910390f35b3480156101ed57600080fd5b506101f6610a8a565b005b34801561020457600080fd5b5061020d610e3a565b60405161021a91906124f1565b60405180910390f35b34801561022f57600080fd5b50610238610e4d565b60405161024591906124bb565b60405180910390f35b34801561025a57600080fd5b50610263610e73565b60405161027091906124d6565b60405180910390f35b34801561028557600080fd5b506102a0600480360381019061029b9190611e98565b610e99565b005b3480156102ae57600080fd5b506102b7610f3a565b6040516102c491906124d6565b60405180910390f35b3480156102d957600080fd5b506102e2610f60565b6040516102ef9190612727565b60405180910390f35b34801561030457600080fd5b5061030d610f66565b60405161031a9190612727565b60405180910390f35b34801561032f57600080fd5b5061034a60048036038101906103459190611e98565b610fff565b005b34801561035857600080fd5b506103616110e9565b60405161036e9190612727565b60405180910390f35b34801561038357600080fd5b5061038c6110ef565b60405161039991906124d6565b60405180910390f35b6103aa611115565b005b3480156103b857600080fd5b506103c1611588565b6040516103ce9190612727565b60405180910390f35b3480156103e357600080fd5b506103fe60048036038101906103f99190611ec1565b61158e565b005b60008054906101000a900460ff1681565b60035481565b600a60019054906101000a900460ff1681565b60006002811115610464577f4e487b7100000000000000000000000000000000000000000000000000000000600052602160045260246000fd5b60008054906101000a900460ff1660028111156104aa577f4e487b7100000000000000000000000000000000000000000000000000000000600052602160045260246000fd5b146104ea576040517f08c379a00000000000000000000000000000000000000000000000000000000081526004016104e1906126a7565b60405180910390fd5b6000811180156104fb5750600a8111155b61053a576040517f08c379a0000000000000000000000000000000000000000000000000000000008152600401610531906125c7565b60405180910390fd5b600a60029054906101000a900460ff161561058a576040517f08c379a0000000000000000000000000000000000000000000000000000000008152600401610581906125e7565b60405180910390fd5b600160009054906101000a900473ffffffffffffffffffffffffffffffffffffffff1673ffffffffffffffffffffffffffffffffffffffff163373ffffffffffffffffffffffffffffffffffffffff1614806106335750600260009054906101000a900473ffffffffffffffffffffffffffffffffffffffff1673ffffffffffffffffffffffffffffffffffffffff163373ffffffffffffffffffffffffffffffffffffffff16145b610672576040517f08c379a000000000000000000000000000000000000000000000000000000000815260040161066990612567565b60405180910390fd5b6006543410156106b7576040517f08c379a00000000000000000000000000000000000000000000000000000000081526004016106ae90612707565b60405180910390fd5b6005543410156106fc576040517f08c379a00000000000000000000000000000000000000000000000000000000081526004016106f390612547565b60405180910390fd5b600160009054906101000a900473ffffffffffffffffffffffffffffffffffffffff1673ffffffffffffffffffffffffffffffffffffffff163373ffffffffffffffffffffffffffffffffffffffff1614156108295760001515600a60009054906101000a900460ff161515146107a8576040517f08c379a000000000000000000000000000000000000000000000000000000000815260040161079f906126e7565b60405180910390fd5b33600160006101000a81548173ffffffffffffffffffffffffffffffffffffffff021916908373ffffffffffffffffffffffffffffffffffffffff16021790555034600360008282546107fb9190612753565b92505081905550806008819055506001600a60006101000a81548160ff021916908315150217905550610953565b600260009054906101000a900473ffffffffffffffffffffffffffffffffffffffff1673ffffffffffffffffffffffffffffffffffffffff163373ffffffffffffffffffffffffffffffffffffffff1614156109525760001515600a60019054906101000a900460ff161515146108d5576040517f08c379a00000000000000000000000000000000000000000000000000000000081526004016108cc906126e7565b60405180910390fd5b33600260006101000a81548173ffffffffffffffffffffffffffffffffffffffff021916908373ffffffffffffffffffffffffffffffffffffffff16021790555034600460008282546109289190612753565b92505081905550806009819055506001600a60016101000a81548160ff0219169083151502179055505b5b60011515600a60009054906101000a900460ff161515148015610989575060011515600a60019054906101000a900460ff161515145b156109df5760016000806101000a81548160ff021916908360028111156109d9577f4e487b7100000000000000000000000000000000000000000000000000000000600052602160045260246000fd5b02179055505b60016002811115610a19577f4e487b7100000000000000000000000000000000000000000000000000000000600052602160045260246000fd5b60008054906101000a900460ff166002811115610a5f577f4e487b7100000000000000000000000000000000000000000000000000000000600052602160045260246000fd5b1415610a7457610a7360085460095461158e565b5b50565b600a60029054906101000a900460ff1681565b600160009054906101000a900473ffffffffffffffffffffffffffffffffffffffff1673ffffffffffffffffffffffffffffffffffffffff163373ffffffffffffffffffffffffffffffffffffffff161480610b335750600260009054906101000a900473ffffffffffffffffffffffffffffffffffffffff1673ffffffffffffffffffffffffffffffffffffffff163373ffffffffffffffffffffffffffffffffffffffff16145b610b72576040517f08c379a0000000000000000000000000000000000000000000000000000000008152600401610b6990612567565b60405180910390fd5b600160009054906101000a900473ffffffffffffffffffffffffffffffffffffffff1673ffffffffffffffffffffffffffffffffffffffff163373ffffffffffffffffffffffffffffffffffffffff161415610cd55760006002600354610bd991906127a9565b9050600554811015610c20576040517f08c379a0000000000000000000000000000000000000000000000000000000008152600401610c17906126c7565b60405180910390fd5b600160009054906101000a900473ffffffffffffffffffffffffffffffffffffffff1673ffffffffffffffffffffffffffffffffffffffff166108fc829081150290604051600060405180830381858888f19350505050158015610c88573d6000803e3d6000fd5b506000600160006101000a81548173ffffffffffffffffffffffffffffffffffffffff021916908373ffffffffffffffffffffffffffffffffffffffff1602179055506000600381905550505b600260009054906101000a900473ffffffffffffffffffffffffffffffffffffffff1673ffffffffffffffffffffffffffffffffffffffff163373ffffffffffffffffffffffffffffffffffffffff161415610e385760006002600454610d3c91906127a9565b9050600554811015610d83576040517f08c379a0000000000000000000000000000000000000000000000000000000008152600401610d7a906126c7565b60405180910390fd5b600260009054906101000a900473ffffffffffffffffffffffffffffffffffffffff1673ffffffffffffffffffffffffffffffffffffffff166108fc829081150290604051600060405180830381858888f19350505050158015610deb573d6000803e3d6000fd5b506000600260006101000a81548173ffffffffffffffffffffffffffffffffffffffff021916908373ffffffffffffffffffffffffffffffffffffffff1602179055506000600481905550505b565b600a60009054906101000a900460ff1681565b600a60039054906101000a900473ffffffffffffffffffffffffffffffffffffffff1681565b600260009054906101000a900473ffffffffffffffffffffffffffffffffffffffff1681565b600060019054906101000a900473ffffffffffffffffffffffffffffffffffffffff1673ffffffffffffffffffffffffffffffffffffffff163373ffffffffffffffffffffffffffffffffffffffff1614610f29576040517f08c379a0000000000000000000000000000000000000000000000000000000008152600401610f2090612627565b60405180910390fd5b806006819055508060058190555050565b600060019054906101000a900473ffffffffffffffffffffffffffffffffffffffff1681565b60065481565b60008060019054906101000a900473ffffffffffffffffffffffffffffffffffffffff1673ffffffffffffffffffffffffffffffffffffffff163373ffffffffffffffffffffffffffffffffffffffff1614610ff7576040517f08c379a0000000000000000000000000000000000000000000000000000000008152600401610fee90612667565b60405180910390fd5b600754905090565b6000811180156110105750600a8111155b61104f576040517f08c379a0000000000000000000000000000000000000000000000000000000008152600401611046906125c7565b60405180910390fd5b600060019054906101000a900473ffffffffffffffffffffffffffffffffffffffff1673ffffffffffffffffffffffffffffffffffffffff163373ffffffffffffffffffffffffffffffffffffffff16146110df576040517f08c379a00000000000000000000000000000000000000000000000000000000081526004016110d690612607565b60405180910390fd5b8060078190555050565b60055481565b600160009054906101000a900473ffffffffffffffffffffffffffffffffffffffff1681565b600073ffffffffffffffffffffffffffffffffffffffff16600160009054906101000a900473ffffffffffffffffffffffffffffffffffffffff1673ffffffffffffffffffffffffffffffffffffffff1614806111c05750600073ffffffffffffffffffffffffffffffffffffffff16600260009054906101000a900473ffffffffffffffffffffffffffffffffffffffff1673ffffffffffffffffffffffffffffffffffffffff16145b6111ff576040517f08c379a00000000000000000000000000000000000000000000000000000000081526004016111f690612587565b60405180910390fd5b600160009054906101000a900473ffffffffffffffffffffffffffffffffffffffff1673ffffffffffffffffffffffffffffffffffffffff163373ffffffffffffffffffffffffffffffffffffffff161415611290576040517f08c379a000000000000000000000000000000000000000000000000000000000815260040161128790612647565b60405180910390fd5b600060019054906101000a900473ffffffffffffffffffffffffffffffffffffffff1673ffffffffffffffffffffffffffffffffffffffff163373ffffffffffffffffffffffffffffffffffffffff161415611321576040517f08c379a000000000000000000000000000000000000000000000000000000000815260040161131890612687565b60405180910390fd5b600654341015611366576040517f08c379a000000000000000000000000000000000000000000000000000000000815260040161135d90612707565b60405180910390fd5b600073ffffffffffffffffffffffffffffffffffffffff16600160009054906101000a900473ffffffffffffffffffffffffffffffffffffffff1673ffffffffffffffffffffffffffffffffffffffff1614156114735733600160006101000a81548173ffffffffffffffffffffffffffffffffffffffff021916908373ffffffffffffffffffffffffffffffffffffffff1602179055503460058190555034600360008282546114179190612753565b9250508190555060008060006101000a81548160ff02191690836002811115611469577f4e487b7100000000000000000000000000000000000000000000000000000000600052602160045260246000fd5b021790555061156b565b600073ffffffffffffffffffffffffffffffffffffffff16600260009054906101000a900473ffffffffffffffffffffffffffffffffffffffff1673ffffffffffffffffffffffffffffffffffffffff16141561156a5760055434101561150f576040517f08c379a0000000000000000000000000000000000000000000000000000000008152600401611506906125a7565b60405180910390fd5b33600260006101000a81548173ffffffffffffffffffffffffffffffffffffffff021916908373ffffffffffffffffffffffffffffffffffffffff16021790555034600460008282546115629190612753565b925050819055505b5b6000600a60026101000a81548160ff021916908315150217905550565b60045481565b600a60029054906101000a900460ff16156115de576040517f08c379a00000000000000000000000000000000000000000000000000000000081526004016115d5906125e7565b60405180910390fd5b6000821180156115ef5750600a8211155b61162e576040517f08c379a0000000000000000000000000000000000000000000000000000000008152600401611625906125c7565b60405180910390fd5b60008111801561163f5750600a8111155b61167e576040517f08c379a0000000000000000000000000000000000000000000000000000000008152600401611675906125c7565b60405180910390fd5b60075482148015611690575060075481145b156118fd576001600a60026101000a81548160ff02191690831515021790555060006004546003546116c29190612753565b9050600081600354476116d591906127da565b6116df91906127a9565b9050600082600454476116f291906127da565b6116fc91906127a9565b9050600160009054906101000a900473ffffffffffffffffffffffffffffffffffffffff1673ffffffffffffffffffffffffffffffffffffffff166108fc839081150290604051600060405180830381858888f19350505050158015611766573d6000803e3d6000fd5b50600260009054906101000a900473ffffffffffffffffffffffffffffffffffffffff1673ffffffffffffffffffffffffffffffffffffffff166108fc829081150290604051600060405180830381858888f193505050501580156117cf573d6000803e3d6000fd5b506117d8611cf7565b6000600160006101000a81548173ffffffffffffffffffffffffffffffffffffffff021916908373ffffffffffffffffffffffffffffffffffffffff1602179055506000600260006101000a81548173ffffffffffffffffffffffffffffffffffffffff021916908373ffffffffffffffffffffffffffffffffffffffff1602179055506000600a60016101000a81548160ff0219169083151502179055600a60006101000a81548160ff0219169083151502179055506000600481905560038190555060065460058190555060026000806101000a81548160ff021916908360028111156118f0577f4e487b7100000000000000000000000000000000000000000000000000000000600052602160045260246000fd5b0217905550505050611cf3565b600754821415611ab5576001600a60026101000a81548160ff021916908315150217905550600160009054906101000a900473ffffffffffffffffffffffffffffffffffffffff1673ffffffffffffffffffffffffffffffffffffffff166108fc479081150290604051600060405180830381858888f1935050505015801561198a573d6000803e3d6000fd5b50611993611cf7565b6000600160006101000a81548173ffffffffffffffffffffffffffffffffffffffff021916908373ffffffffffffffffffffffffffffffffffffffff1602179055506000600260006101000a81548173ffffffffffffffffffffffffffffffffffffffff021916908373ffffffffffffffffffffffffffffffffffffffff1602179055506000600a60016101000a81548160ff0219169083151502179055600a60006101000a81548160ff0219169083151502179055506000600481905560038190555060065460058190555060026000806101000a81548160ff02191690836002811115611aab577f4e487b7100000000000000000000000000000000000000000000000000000000600052602160045260246000fd5b0217905550611cf2565b600754811415611c6d576001600a60026101000a81548160ff021916908315150217905550600260009054906101000a900473ffffffffffffffffffffffffffffffffffffffff1673ffffffffffffffffffffffffffffffffffffffff166108fc479081150290604051600060405180830381858888f19350505050158015611b42573d6000803e3d6000fd5b50611b4b611cf7565b6000600160006101000a81548173ffffffffffffffffffffffffffffffffffffffff021916908373ffffffffffffffffffffffffffffffffffffffff1602179055506000600260006101000a81548173ffffffffffffffffffffffffffffffffffffffff021916908373ffffffffffffffffffffffffffffffffffffffff1602179055506000600a60016101000a81548160ff0219169083151502179055600a60006101000a81548160ff0219169083151502179055506000600481905560038190555060065460058190555060026000806101000a81548160ff02191690836002811115611c63577f4e487b7100000000000000000000000000000000000000000000000000000000600052602160045260246000fd5b0217905550611cf1565b60008060006101000a81548160ff02191690836002811115611cb8577f4e487b7100000000000000000000000000000000000000000000000000000000600052602160045260246000fd5b02179055506000600a60016101000a81548160ff0219169083151502179055600a60006101000a81548160ff0219169083151502179055505b5b5b5050565b600060019054906101000a900473ffffffffffffffffffffffffffffffffffffffff1673ffffffffffffffffffffffffffffffffffffffff163373ffffffffffffffffffffffffffffffffffffffff161480611da05750600160009054906101000a900473ffffffffffffffffffffffffffffffffffffffff1673ffffffffffffffffffffffffffffffffffffffff163373ffffffffffffffffffffffffffffffffffffffff16145b80611df85750600260009054906101000a900473ffffffffffffffffffffffffffffffffffffffff1673ffffffffffffffffffffffffffffffffffffffff163373ffffffffffffffffffffffffffffffffffffffff16145b611e37576040517f08c379a0000000000000000000000000000000000000000000000000000000008152600401611e2e90612527565b60405180910390fd5b6001600a4244604051602001611e4e92919061248f565b6040516020818303038152906040528051906020012060001c611e7191906128bd565b611e7b9190612753565b600781905550565b600081359050611e928161298f565b92915050565b600060208284031215611eaa57600080fd5b6000611eb884828501611e83565b91505092915050565b60008060408385031215611ed457600080fd5b6000611ee285828601611e83565b9250506020611ef385828601611e83565b9150509250929050565b611f0681612846565b82525050565b611f1581612834565b82525050565b611f2481612858565b82525050565b611f33816128a1565b82525050565b6000611f46602d83612742565b91507f4f6e6c7920746865206f776e65722063616e2067656e6572617465207468652060008301527f746172676574206e756d626572000000000000000000000000000000000000006020830152604082019050919050565b6000611fac604483612742565b91507f506c656173652073656e64206574686572207769746820796f7572206775657360008301527f7320657175616c206f7220686967686572207468616e2074686520656e74727960208301527f20666565000000000000000000000000000000000000000000000000000000006040830152606082019050919050565b6000612038600c83612742565b91507f4e6f74206120706c6179657200000000000000000000000000000000000000006000830152602082019050919050565b6000612078601483612742565b91507f47616d6520697320616c72656164792066756c6c0000000000000000000000006000830152602082019050919050565b60006120b8602b83612742565b91507f546865206574686572206e656564656420746f206a6f696e206e65656473207460008301527f6f206265206869676865720000000000000000000000000000000000000000006020830152604082019050919050565b600061211e601e83612742565b91507f4775657373206d757374206265206265747765656e203120616e6420313000006000830152602082019050919050565b600061215e601683612742565b91507f47616d652068617320616c726561647920656e646564000000000000000000006000830152602082019050919050565b600061219e602883612742565b91507f4f6e6c7920746865206f776e65722063616e207365742074686520746172676560008301527f74206e756d6265720000000000000000000000000000000000000000000000006020830152604082019050919050565b6000612204602683612742565b91507f4f6e6c7920746865206f776e65722063616e2073657420746865206d696e696d60008301527f756d2062657400000000000000000000000000000000000000000000000000006020830152604082019050919050565b600061226a602083612742565b91507f796f75206861766520616c7265616479206a6f696e6564207468652067616d656000830152602082019050919050565b60006122aa602983612742565b91507f4f6e6c7920746865206f776e65722063616e207669657720746865207461726760008301527f6574206e756d62657200000000000000000000000000000000000000000000006020830152604082019050919050565b6000612310601a83612742565b91507f4f776e65722063616e6e6f74206a6f696e207468652067616d650000000000006000830152602082019050919050565b6000612350601c83612742565b91507f426f746820706c61796572206861766520616c726561647920626574000000006000830152602082019050919050565b6000612390601683612742565b91507f4e6f2062616c616e636520746f207769746864726177000000000000000000006000830152602082019050919050565b60006123d0601483612742565b91507f596f7520686176652042657420616c72656164790000000000000000000000006000830152602082019050919050565b6000612410602783612742565b91507f506c656173652073656e64206d6f726520657468657220746f206a6f696e207460008301527f68652067616d65000000000000000000000000000000000000000000000000006020830152604082019050919050565b61247281612897565b82525050565b61248961248482612897565b6128b3565b82525050565b600061249b8285612478565b6020820191506124ab8284612478565b6020820191508190509392505050565b60006020820190506124d06000830184611f0c565b92915050565b60006020820190506124eb6000830184611efd565b92915050565b60006020820190506125066000830184611f1b565b92915050565b60006020820190506125216000830184611f2a565b92915050565b6000602082019050818103600083015261254081611f39565b9050919050565b6000602082019050818103600083015261256081611f9f565b9050919050565b600060208201905081810360008301526125808161202b565b9050919050565b600060208201905081810360008301526125a08161206b565b9050919050565b600060208201905081810360008301526125c0816120ab565b9050919050565b600060208201905081810360008301526125e081612111565b9050919050565b6000602082019050818103600083015261260081612151565b9050919050565b6000602082019050818103600083015261262081612191565b9050919050565b60006020820190508181036000830152612640816121f7565b9050919050565b600060208201905081810360008301526126608161225d565b9050919050565b600060208201905081810360008301526126808161229d565b9050919050565b600060208201905081810360008301526126a081612303565b9050919050565b600060208201905081810360008301526126c081612343565b9050919050565b600060208201905081810360008301526126e081612383565b9050919050565b60006020820190508181036000830152612700816123c3565b9050919050565b6000602082019050818103600083015261272081612403565b9050919050565b600060208201905061273c6000830184612469565b92915050565b600082825260208201905092915050565b600061275e82612897565b915061276983612897565b9250827fffffffffffffffffffffffffffffffffffffffffffffffffffffffffffffffff0382111561279e5761279d6128ee565b5b828201905092915050565b60006127b482612897565b91506127bf83612897565b9250826127cf576127ce61291d565b5b828204905092915050565b60006127e582612897565b91506127f083612897565b9250817fffffffffffffffffffffffffffffffffffffffffffffffffffffffffffffffff0483118215151615612829576128286128ee565b5b828202905092915050565b600061283f82612877565b9050919050565b600061285182612877565b9050919050565b60008115159050919050565b60008190506128728261297b565b919050565b600073ffffffffffffffffffffffffffffffffffffffff82169050919050565b6000819050919050565b60006128ac82612864565b9050919050565b6000819050919050565b60006128c882612897565b91506128d383612897565b9250826128e3576128e261291d565b5b828206905092915050565b7f4e487b7100000000000000000000000000000000000000000000000000000000600052601160045260246000fd5b7f4e487b7100000000000000000000000000000000000000000000000000000000600052601260045260246000fd5b7f4e487b7100000000000000000000000000000000000000000000000000000000600052602160045260246000fd5b6003811061298c5761298b61294c565b5b50565b61299881612897565b81146129a357600080fd5b5056fea264697066735822122067bdb7f911431b8a99ff4722f14ced0fa75d2c979c4da489238abecb899fc04364736f6c63430008000033",
  "linkReferences": {},
  "deployedLinkReferences": {}
}